{
    "contractName": "DataContract",
    "abi": [
        {
            "constant": false,
            "inputs": [
                {
                    "name": "userAddress",
                    "type": "address"
                }
            ],
            "name": "add",
            "outputs": [],
            "payable": false,
            "stateMutability": "nonpayable",
            "type": "function"
        },
        {
            "constant": true,
            "inputs": [],
            "name": "getUserManager",
            "outputs": [
                {
                    "name": "",
                    "type": "address"
                }
            ],
            "payable": false,
            "stateMutability": "view",
            "type": "function"
        },
        {
            "constant": true,
            "inputs": [],
            "name": "userFactory",
            "outputs": [
                {
                    "name": "",
                    "type": "address"
                }
            ],
            "payable": false,
            "stateMutability": "view",
            "type": "function"
        },
        {
            "constant": false,
            "inputs": [
                {
                    "name": "userFactoryAddress",
                    "type": "address"
                }
            ],
            "name": "setUserFactory",
            "outputs": [],
            "payable": false,
            "stateMutability": "nonpayable",
            "type": "function"
        },
        {
            "constant": true,
            "inputs": [
                {
                    "name": "nodeAddress",
                    "type": "address"
                }
            ],
            "name": "getNodeData",
            "outputs": [
                {
                    "name": "data",
                    "type": "address"
                },
                {
                    "name": "previousNode",
                    "type": "address"
                },
                {
                    "name": "nextNode",
                    "type": "address"
                }
            ],
            "payable": false,
            "stateMutability": "view",
            "type": "function"
        },
        {
            "constant": true,
            "inputs": [],
            "name": "getLinkedListLength",
            "outputs": [
                {
                    "name": "",
                    "type": "uint256"
                }
            ],
            "payable": false,
            "stateMutability": "view",
            "type": "function"
        },
        {
            "constant": true,
            "inputs": [],
            "name": "userManager",
            "outputs": [
                {
                    "name": "",
                    "type": "address"
                }
            ],
            "payable": false,
            "stateMutability": "view",
            "type": "function"
        },
        {
            "constant": true,
            "inputs": [],
            "name": "taxationPeriodInSeconds",
            "outputs": [
                {
                    "name": "",
                    "type": "uint256"
                }
            ],
            "payable": false,
            "stateMutability": "view",
            "type": "function"
        },
        {
            "constant": false,
            "inputs": [
                {
                    "name": "_newImpl",
                    "type": "address"
                }
            ],
            "name": "upgradeImplementation",
            "outputs": [],
            "payable": false,
            "stateMutability": "nonpayable",
            "type": "function"
        },
        {
            "constant": true,
            "inputs": [],
            "name": "getOwner",
            "outputs": [
                {
                    "name": "",
                    "type": "address"
                }
            ],
            "payable": false,
            "stateMutability": "view",
            "type": "function"
        },
        {
            "constant": true,
            "inputs": [],
            "name": "owner",
            "outputs": [
                {
                    "name": "",
                    "type": "address"
                }
            ],
            "payable": false,
            "stateMutability": "view",
            "type": "function"
        },
        {
            "constant": false,
            "inputs": [
                {
                    "name": "userManagerAddress",
                    "type": "address"
                }
            ],
            "name": "setUserManager",
            "outputs": [],
            "payable": false,
            "stateMutability": "nonpayable",
            "type": "function"
        },
        {
            "constant": true,
            "inputs": [],
            "name": "isSingleNodeList",
            "outputs": [
                {
                    "name": "",
                    "type": "bool"
                }
            ],
            "payable": false,
            "stateMutability": "view",
            "type": "function"
        },
        {
            "constant": true,
            "inputs": [],
            "name": "contractImplementation",
            "outputs": [
                {
                    "name": "",
                    "type": "address"
                }
            ],
            "payable": false,
            "stateMutability": "view",
            "type": "function"
        },
        {
            "constant": true,
            "inputs": [],
            "name": "getImplementation",
            "outputs": [
                {
                    "name": "",
                    "type": "address"
                }
            ],
            "payable": false,
            "stateMutability": "view",
            "type": "function"
        },
        {
            "constant": true,
            "inputs": [
                {
                    "name": "userAddress",
                    "type": "address"
                }
            ],
            "name": "peek",
            "outputs": [
                {
                    "name": "",
                    "type": "address"
                }
            ],
            "payable": false,
            "stateMutability": "view",
            "type": "function"
        },
        {
            "constant": true,
            "inputs": [],
            "name": "taxPercentage",
            "outputs": [
                {
                    "name": "",
                    "type": "uint256"
                }
            ],
            "payable": false,
            "stateMutability": "view",
            "type": "function"
        },
        {
            "constant": true,
            "inputs": [],
            "name": "getHead",
            "outputs": [
                {
                    "name": "",
                    "type": "address"
                }
            ],
            "payable": false,
            "stateMutability": "view",
            "type": "function"
        },
        {
            "constant": false,
            "inputs": [],
            "name": "init",
            "outputs": [],
            "payable": false,
            "stateMutability": "nonpayable",
            "type": "function"
        },
        {
            "constant": true,
            "inputs": [],
            "name": "getUserFactory",
            "outputs": [
                {
                    "name": "",
                    "type": "address"
                }
            ],
            "payable": false,
            "stateMutability": "view",
            "type": "function"
        },
        {
            "constant": false,
            "inputs": [
                {
                    "name": "userAddress",
                    "type": "address"
                }
            ],
            "name": "moveToEnd",
            "outputs": [],
            "payable": false,
            "stateMutability": "nonpayable",
            "type": "function"
        },
        {
            "constant": false,
            "inputs": [
                {
                    "name": "newOwner",
                    "type": "address"
                }
            ],
            "name": "transferOwnership",
            "outputs": [],
            "payable": false,
            "stateMutability": "nonpayable",
            "type": "function"
        },
        {
            "constant": true,
            "inputs": [],
            "name": "getTail",
            "outputs": [
                {
                    "name": "",
                    "type": "address"
                }
            ],
            "payable": false,
            "stateMutability": "view",
            "type": "function"
        },
        {
            "anonymous": false,
            "inputs": [
                {
                    "indexed": true,
                    "name": "_newImpl",
                    "type": "address"
                }
            ],
            "name": "UpgradedContract",
            "type": "event"
        },
        {
            "anonymous": false,
            "inputs": [
                {
                    "indexed": true,
                    "name": "previousOwner",
                    "type": "address"
                },
                {
                    "indexed": true,
                    "name": "newOwner",
                    "type": "address"
                }
            ],
            "name": "OwnershipTransferred",
            "type": "event"
        },
        {
            "anonymous": false,
            "inputs": [
                {
                    "indexed": false,
                    "name": "_taxPercentage",
                    "type": "uint256"
                }
            ],
            "name": "LogTaxPercentageSet",
            "type": "event"
        },
        {
            "anonymous": false,
            "inputs": [
                {
                    "indexed": false,
                    "name": "_taxationPeriodInSeconds",
                    "type": "uint256"
                }
            ],
            "name": "LogTaxationPeriodInSecondsSet",
            "type": "event"
        },
        {
            "anonymous": false,
            "inputs": [
                {
                    "indexed": false,
                    "name": "userAddress",
                    "type": "address"
                }
            ],
            "name": "LogUserAdd",
            "type": "event"
        },
        {
            "anonymous": false,
            "inputs": [
                {
                    "indexed": false,
                    "name": "userAddress",
                    "type": "address"
                }
            ],
            "name": "LogUserMove",
            "type": "event"
        },
        {
            "constant": true,
            "inputs": [],
            "name": "getTaxPercentage",
            "outputs": [
                {
                    "name": "_taxPercentage",
                    "type": "uint256"
                }
            ],
            "payable": false,
            "stateMutability": "view",
            "type": "function"
        },
        {
            "constant": false,
            "inputs": [
                {
                    "name": "_taxPercentage",
                    "type": "uint256"
                }
            ],
            "name": "setTaxPercentage",
            "outputs": [],
            "payable": false,
            "stateMutability": "nonpayable",
            "type": "function"
        },
        {
            "constant": true,
            "inputs": [],
            "name": "getTaxationPeriodInSeconds",
            "outputs": [
                {
                    "name": "_taxationPeriodInSeconds",
                    "type": "uint256"
                }
            ],
            "payable": false,
            "stateMutability": "view",
            "type": "function"
        },
        {
            "constant": false,
            "inputs": [
                {
                    "name": "_taxationPeriodInSeconds",
                    "type": "uint256"
                }
            ],
            "name": "setTaxationPeriodInSeconds",
            "outputs": [],
            "payable": false,
            "stateMutability": "nonpayable",
            "type": "function"
        }
    ],
    "bytecode": "0x608060405234801561001057600080fd5b5061172f806100206000396000f30060806040526004361061015f576000357c0100000000000000000000000000000000000000000000000000000000900463ffffffff1680630a3b0a4f146101645780631dffd012146101a7578063283097ab146101fe57806330cc15431461025557806338fc10901461029857806341550f2e1461038157806346a34f0f146103ac5780634ba95f5d146103d95780635c8a7687146104045780635ef0878d1461045b578063699abb3c1461048657806383f94db7146104b3578063893d20e8146104f65780638da5cb5b1461054d57806397d0b02c146105a4578063997ad1c9146105e75780639e72370b14610616578063aaf10f421461066d578063acefafae146106c4578063ae7b6d1614610747578063daecad5214610772578063dc281aff1461079d578063e1c7392a146107f4578063e1d551551461080b578063e7a5bdd214610862578063f2fde38b146108a5578063f8cdfbf8146108e8575b600080fd5b34801561017057600080fd5b506101a5600480360381019080803573ffffffffffffffffffffffffffffffffffffffff16906020019092919050505061093f565b005b3480156101b357600080fd5b506101bc610abb565b604051808273ffffffffffffffffffffffffffffffffffffffff1673ffffffffffffffffffffffffffffffffffffffff16815260200191505060405180910390f35b34801561020a57600080fd5b50610213610ae5565b604051808273ffffffffffffffffffffffffffffffffffffffff1673ffffffffffffffffffffffffffffffffffffffff16815260200191505060405180910390f35b34801561026157600080fd5b50610296600480360381019080803573ffffffffffffffffffffffffffffffffffffffff169060200190929190505050610b0b565b005b3480156102a457600080fd5b506102d9600480360381019080803573ffffffffffffffffffffffffffffffffffffffff169060200190929190505050610be7565b604051808473ffffffffffffffffffffffffffffffffffffffff1673ffffffffffffffffffffffffffffffffffffffff1681526020018373ffffffffffffffffffffffffffffffffffffffff1673ffffffffffffffffffffffffffffffffffffffff1681526020018273ffffffffffffffffffffffffffffffffffffffff1673ffffffffffffffffffffffffffffffffffffffff168152602001935050505060405180910390f35b34801561038d57600080fd5b50610396610d66565b6040518082815260200191505060405180910390f35b3480156103b857600080fd5b506103d760048036038101908080359060200190929190505050610d70565b005b3480156103e557600080fd5b506103ee610e0f565b6040518082815260200191505060405180910390f35b34801561041057600080fd5b50610419610e1c565b604051808273ffffffffffffffffffffffffffffffffffffffff1673ffffffffffffffffffffffffffffffffffffffff16815260200191505060405180910390f35b34801561046757600080fd5b50610470610e42565b6040518082815260200191505060405180910390f35b34801561049257600080fd5b506104b160048036038101908080359060200190929190505050610e48565b005b3480156104bf57600080fd5b506104f4600480360381019080803573ffffffffffffffffffffffffffffffffffffffff169060200190929190505050610ee7565b005b34801561050257600080fd5b5061050b610fc9565b604051808273ffffffffffffffffffffffffffffffffffffffff1673ffffffffffffffffffffffffffffffffffffffff16815260200191505060405180910390f35b34801561055957600080fd5b50610562610ff3565b604051808273ffffffffffffffffffffffffffffffffffffffff1673ffffffffffffffffffffffffffffffffffffffff16815260200191505060405180910390f35b3480156105b057600080fd5b506105e5600480360381019080803573ffffffffffffffffffffffffffffffffffffffff169060200190929190505050611019565b005b3480156105f357600080fd5b506105fc6110f5565b604051808215151515815260200191505060405180910390f35b34801561062257600080fd5b5061062b6111a5565b604051808273ffffffffffffffffffffffffffffffffffffffff1673ffffffffffffffffffffffffffffffffffffffff16815260200191505060405180910390f35b34801561067957600080fd5b506106826111ca565b604051808273ffffffffffffffffffffffffffffffffffffffff1673ffffffffffffffffffffffffffffffffffffffff16815260200191505060405180910390f35b3480156106d057600080fd5b50610705600480360381019080803573ffffffffffffffffffffffffffffffffffffffff1690602001909291905050506111f3565b604051808273ffffffffffffffffffffffffffffffffffffffff1673ffffffffffffffffffffffffffffffffffffffff16815260200191505060405180910390f35b34801561075357600080fd5b5061075c61129d565b6040518082815260200191505060405180910390f35b34801561077e57600080fd5b506107876112a3565b6040518082815260200191505060405180910390f35b3480156107a957600080fd5b506107b26112ad565b604051808273ffffffffffffffffffffffffffffffffffffffff1673ffffffffffffffffffffffffffffffffffffffff16815260200191505060405180910390f35b34801561080057600080fd5b506108096112da565b005b34801561081757600080fd5b5061082061137a565b604051808273ffffffffffffffffffffffffffffffffffffffff1673ffffffffffffffffffffffffffffffffffffffff16815260200191505060405180910390f35b34801561086e57600080fd5b506108a3600480360381019080803573ffffffffffffffffffffffffffffffffffffffff1690602001909291905050506113a4565b005b3480156108b157600080fd5b506108e6600480360381019080803573ffffffffffffffffffffffffffffffffffffffff169060200190929190505050611520565b005b3480156108f457600080fd5b506108fd6116d6565b604051808273ffffffffffffffffffffffffffffffffffffffff1673ffffffffffffffffffffffffffffffffffffffff16815260200191505060405180910390f35b3373ffffffffffffffffffffffffffffffffffffffff16600360009054906101000a900473ffffffffffffffffffffffffffffffffffffffff1673ffffffffffffffffffffffffffffffffffffffff1614151561099b57600080fd5b600473__LinkedList____________________________63bf51aa329091836040518363ffffffff167c0100000000000000000000000000000000000000000000000000000000028152600401808381526020018273ffffffffffffffffffffffffffffffffffffffff1673ffffffffffffffffffffffffffffffffffffffff1681526020019250505060006040518083038186803b158015610a3d57600080fd5b505af4158015610a51573d6000803e3d6000fd5b505050507f7b465417d0809827fe006e52ad972a59fbc27f0c251570b55f27db05ea13769281604051808273ffffffffffffffffffffffffffffffffffffffff1673ffffffffffffffffffffffffffffffffffffffff16815260200191505060405180910390a150565b6000600260009054906101000a900473ffffffffffffffffffffffffffffffffffffffff16905090565b600360009054906101000a900473ffffffffffffffffffffffffffffffffffffffff1681565b600160009054906101000a900473ffffffffffffffffffffffffffffffffffffffff1673ffffffffffffffffffffffffffffffffffffffff163373ffffffffffffffffffffffffffffffffffffffff16141515610b6757600080fd5b600073ffffffffffffffffffffffffffffffffffffffff168173ffffffffffffffffffffffffffffffffffffffff1614151515610ba357600080fd5b80600360006101000a81548173ffffffffffffffffffffffffffffffffffffffff021916908373ffffffffffffffffffffffffffffffffffffffff16021790555050565b60008060008073ffffffffffffffffffffffffffffffffffffffff168473ffffffffffffffffffffffffffffffffffffffff1614151515610c2757600080fd5b600460030160008573ffffffffffffffffffffffffffffffffffffffff1673ffffffffffffffffffffffffffffffffffffffff16815260200190815260200160002060000160009054906101000a900473ffffffffffffffffffffffffffffffffffffffff16600460030160008673ffffffffffffffffffffffffffffffffffffffff1673ffffffffffffffffffffffffffffffffffffffff16815260200190815260200160002060010160009054906101000a900473ffffffffffffffffffffffffffffffffffffffff16600460030160008773ffffffffffffffffffffffffffffffffffffffff1673ffffffffffffffffffffffffffffffffffffffff16815260200190815260200160002060020160009054906101000a900473ffffffffffffffffffffffffffffffffffffffff169250925092509193909250565b6000600854905090565b3373ffffffffffffffffffffffffffffffffffffffff16600260009054906101000a900473ffffffffffffffffffffffffffffffffffffffff1673ffffffffffffffffffffffffffffffffffffffff16141515610dcc57600080fd5b806009819055507f5130287d8efba64a0c4f4eac8e59ddf9de5e7946eafc0736fd284123abaf08316009546040518082815260200191505060405180910390a150565b6000600460020154905090565b600260009054906101000a900473ffffffffffffffffffffffffffffffffffffffff1681565b60095481565b3373ffffffffffffffffffffffffffffffffffffffff16600260009054906101000a900473ffffffffffffffffffffffffffffffffffffffff1673ffffffffffffffffffffffffffffffffffffffff16141515610ea457600080fd5b806008819055507f3f0e28cff8bae40255adca3c8ed0267c8457dfda3c1626e39e1cb70bd69e47f66008546040518082815260200191505060405180910390a150565b600160009054906101000a900473ffffffffffffffffffffffffffffffffffffffff1673ffffffffffffffffffffffffffffffffffffffff163373ffffffffffffffffffffffffffffffffffffffff16141515610f4357600080fd5b806000806101000a81548173ffffffffffffffffffffffffffffffffffffffff021916908373ffffffffffffffffffffffffffffffffffffffff1602179055508073ffffffffffffffffffffffffffffffffffffffff167fbb0e7ec411133f2e650f59a5c752be1a0f548c2140421e80171b2f9b1ff833a960405160405180910390a250565b6000600160009054906101000a900473ffffffffffffffffffffffffffffffffffffffff16905090565b600160009054906101000a900473ffffffffffffffffffffffffffffffffffffffff1681565b600160009054906101000a900473ffffffffffffffffffffffffffffffffffffffff1673ffffffffffffffffffffffffffffffffffffffff163373ffffffffffffffffffffffffffffffffffffffff1614151561107557600080fd5b600073ffffffffffffffffffffffffffffffffffffffff168173ffffffffffffffffffffffffffffffffffffffff16141515156110b157600080fd5b80600260006101000a81548173ffffffffffffffffffffffffffffffffffffffff021916908373ffffffffffffffffffffffffffffffffffffffff16021790555050565b6000600473__LinkedList____________________________63aeea28b090916040518263ffffffff167c01000000000000000000000000000000000000000000000000000000000281526004018082815260200191505060206040518083038186803b15801561116557600080fd5b505af4158015611179573d6000803e3d6000fd5b505050506040513d602081101561118f57600080fd5b8101908080519060200190929190505050905090565b6000809054906101000a900473ffffffffffffffffffffffffffffffffffffffff1681565b60008060009054906101000a900473ffffffffffffffffffffffffffffffffffffffff16905090565b60008073ffffffffffffffffffffffffffffffffffffffff168273ffffffffffffffffffffffffffffffffffffffff161415151561123057600080fd5b600460030160008373ffffffffffffffffffffffffffffffffffffffff1673ffffffffffffffffffffffffffffffffffffffff16815260200190815260200160002060000160009054906101000a900473ffffffffffffffffffffffffffffffffffffffff169050919050565b60085481565b6000600954905090565b6000600460000160009054906101000a900473ffffffffffffffffffffffffffffffffffffffff16905090565b600073ffffffffffffffffffffffffffffffffffffffff16600160009054906101000a900473ffffffffffffffffffffffffffffffffffffffff1673ffffffffffffffffffffffffffffffffffffffff1614151561133757600080fd5b33600160006101000a81548173ffffffffffffffffffffffffffffffffffffffff021916908373ffffffffffffffffffffffffffffffffffffffff160217905550565b6000600360009054906101000a900473ffffffffffffffffffffffffffffffffffffffff16905090565b3373ffffffffffffffffffffffffffffffffffffffff16600260009054906101000a900473ffffffffffffffffffffffffffffffffffffffff1673ffffffffffffffffffffffffffffffffffffffff1614151561140057600080fd5b600473__LinkedList____________________________630618f2709091836040518363ffffffff167c0100000000000000000000000000000000000000000000000000000000028152600401808381526020018273ffffffffffffffffffffffffffffffffffffffff1673ffffffffffffffffffffffffffffffffffffffff1681526020019250505060006040518083038186803b1580156114a257600080fd5b505af41580156114b6573d6000803e3d6000fd5b505050507f4c14fa57b50b2e34fd1592bad194f882c6f275a6925a1953551a23ff56cb224281604051808273ffffffffffffffffffffffffffffffffffffffff1673ffffffffffffffffffffffffffffffffffffffff16815260200191505060405180910390a150565b600073ffffffffffffffffffffffffffffffffffffffff16600160009054906101000a900473ffffffffffffffffffffffffffffffffffffffff1673ffffffffffffffffffffffffffffffffffffffff161415151561157e57600080fd5b600160009054906101000a900473ffffffffffffffffffffffffffffffffffffffff1673ffffffffffffffffffffffffffffffffffffffff163373ffffffffffffffffffffffffffffffffffffffff161415156115da57600080fd5b600073ffffffffffffffffffffffffffffffffffffffff168173ffffffffffffffffffffffffffffffffffffffff161415151561161657600080fd5b8073ffffffffffffffffffffffffffffffffffffffff16600160009054906101000a900473ffffffffffffffffffffffffffffffffffffffff1673ffffffffffffffffffffffffffffffffffffffff167f8be0079c531659141344cd1fd0a4f28419497f9722a3daafe3b4186f6b6457e060405160405180910390a380600160006101000a81548173ffffffffffffffffffffffffffffffffffffffff021916908373ffffffffffffffffffffffffffffffffffffffff16021790555050565b6000600460010160009054906101000a900473ffffffffffffffffffffffffffffffffffffffff169050905600a165627a7a723058200d9c494191f78fb70988da2871e85b28e70b43323d082d4bed660e7dfeadc8ef0029",
    "source": "pragma solidity ^0.4.21;\n\nimport \"./IDataContract.sol\";\nimport \"./../User/UserFactory/IUserFactory.sol\";\nimport \"./../LinkedList/LinkedListContract.sol\";\nimport \"./../Upgradeability/OwnableUpgradeableImplementation/OwnableUpgradeableImplementation.sol\";\n\ncontract DataContract is IDataContract, OwnableUpgradeableImplementation, LinkedListContract  {\n\n    uint256 public taxPercentage;\n    uint256 public taxationPeriodInSeconds;\n\n    function getTaxPercentage() external view returns(uint256 _taxPercentage) {\n        return taxPercentage;\n    }\n\n    function setTaxPercentage(uint256 _taxPercentage) external onlyUserManager {\n        taxPercentage = _taxPercentage;\n\n        emit LogTaxPercentageSet(taxPercentage);\n    }\n\n    function getTaxationPeriodInSeconds() external view returns(uint256 _taxationPeriodInSeconds) {\n        return taxationPeriodInSeconds;\n    }\n\n    function setTaxationPeriodInSeconds(uint256 _taxationPeriodInSeconds) external onlyUserManager {\n        taxationPeriodInSeconds = _taxationPeriodInSeconds;\n        \n        emit LogTaxationPeriodInSecondsSet(taxationPeriodInSeconds);\n    }\n}",
    "sourcePath": "/Users/dimitardzhurenov/Documents/Work/LimeLabs/Projects/Limechain/etherlime-test/contracts/Data/DataContract.sol",
    "compiler": {
        "name": "solc",
        "version": "0.4.24+commit.e67f0147.Emscripten.clang"
    },
    "schemaVersion": "0.4.8",
    "updatedAt": "2018-07-18T07:34:48.201Z"
}