{
  "contractName": "Greetings",
  "abi": [
    {
      "inputs": [],
      "payable": false,
      "stateMutability": "nonpayable",
      "type": "constructor"
    },
    {
      "constant": false,
      "inputs": [
        {
          "name": "_message",
          "type": "string"
        }
      ],
      "name": "setGreetings",
      "outputs": [],
      "payable": false,
      "stateMutability": "nonpayable",
      "type": "function"
    },
    {
      "constant": true,
      "inputs": [],
      "name": "getGreetings",
      "outputs": [
        {
          "name": "",
          "type": "string"
        }
      ],
      "payable": false,
      "stateMutability": "view",
      "type": "function"
    }
  ],
  "bytecode": "0x6060604052341561000f57600080fd5b6040805190810160405280600a81526020017f49276d20726561647921000000000000000000000000000000000000000000008152506000908051906020019061005a929190610060565b50610105565b828054600181600116156101000203166002900490600052602060002090601f016020900481019282601f106100a157805160ff19168380011785556100cf565b828001600101855582156100cf579182015b828111156100ce5782518255916020019190600101906100b3565b5b5090506100dc91906100e0565b5090565b61010291905b808211156100fe5760008160009055506001016100e6565b5090565b90565b6102e3806101146000396000f30060606040526004361061004c576000357c0100000000000000000000000000000000000000000000000000000000900463ffffffff16806349da5de414610051578063ca4c3a41146100ae575b600080fd5b341561005c57600080fd5b6100ac600480803590602001908201803590602001908080601f0160208091040260200160405190810160405280939291908181526020018383808284378201915050505050509190505061013c565b005b34156100b957600080fd5b6100c1610156565b6040518080602001828103825283818151815260200191508051906020019080838360005b838110156101015780820151818401526020810190506100e6565b50505050905090810190601f16801561012e5780820380516001836020036101000a031916815260200191505b509250505060405180910390f35b80600090805190602001906101529291906101fe565b5050565b61015e61027e565b60008054600181600116156101000203166002900480601f0160208091040260200160405190810160405280929190818152602001828054600181600116156101000203166002900480156101f45780601f106101c9576101008083540402835291602001916101f4565b820191906000526020600020905b8154815290600101906020018083116101d757829003601f168201915b5050505050905090565b828054600181600116156101000203166002900490600052602060002090601f016020900481019282601f1061023f57805160ff191683800117855561026d565b8280016001018555821561026d579182015b8281111561026c578251825591602001919060010190610251565b5b50905061027a9190610292565b5090565b602060405190810160405280600081525090565b6102b491905b808211156102b0576000816000905550600101610298565b5090565b905600a165627a7a723058207254af938dfa4df980f2226bc197d33bec6c75853d958f70867435ee886e8e6f0029",
  "source": "pragma solidity ^0.4.18; // this means that the file cannot be compiled with a version earlier than specified and greater than or equl to version 0.5.0\n\ncontract Greetings { // contract name\n\tstring message; // variable with a string datatype\n\n// this is the constructor, this will be called only once when the contract is deployed to the blockchain\n\tfunction Greetings() public {\n\t\tmessage = \"I'm ready!\";\n\t}\n\n// modifies the state of the contract\n\tfunction setGreetings(string _message) public {\n\t\tmessage = _message;\n\t}\n// 'view' means that this will not change the state of the contact so calling it no transaction will be made\n\tfunction getGreetings() public view returns (string) {\n\t\treturn message;\n\t}\n\n}",
  "sourcePath": "/Users/ognyanchikov/ChainSkills/Training/GreetingsTruffle/contracts/Greetings.sol",
  "compiler": {
    "name": "solc",
    "version": "0.4.19+commit.c4cbbb05.Emscripten.clang"
  },
  "schemaVersion": "2.0.0",
  "updatedAt": "2018-06-13T14:30:45.631Z"
}