{
  "contractName": "ProductionFactory",
  "abi": [
    {
      "constant": true,
      "inputs": [
        {
          "name": "",
          "type": "address"
        }
      ],
      "name": "_isBlacklisted",
      "outputs": [
        {
          "name": "",
          "type": "bool"
        }
      ],
      "payable": false,
      "stateMutability": "view",
      "type": "function"
    },
    {
      "constant": true,
      "inputs": [],
      "name": "_tokenContract",
      "outputs": [
        {
          "name": "",
          "type": "address"
        }
      ],
      "payable": false,
      "stateMutability": "view",
      "type": "function"
    },
    {
      "constant": false,
      "inputs": [
        {
          "name": "_newImpl",
          "type": "address"
        }
      ],
      "name": "upgradeImplementation",
      "outputs": [],
      "payable": false,
      "stateMutability": "nonpayable",
      "type": "function"
    },
    {
      "constant": true,
      "inputs": [],
      "name": "getOwner",
      "outputs": [
        {
          "name": "",
          "type": "address"
        }
      ],
      "payable": false,
      "stateMutability": "view",
      "type": "function"
    },
    {
      "constant": true,
      "inputs": [],
      "name": "owner",
      "outputs": [
        {
          "name": "",
          "type": "address"
        }
      ],
      "payable": false,
      "stateMutability": "view",
      "type": "function"
    },
    {
      "constant": true,
      "inputs": [],
      "name": "_productionRegistry",
      "outputs": [
        {
          "name": "",
          "type": "address"
        }
      ],
      "payable": false,
      "stateMutability": "view",
      "type": "function"
    },
    {
      "constant": true,
      "inputs": [],
      "name": "contractImplementation",
      "outputs": [
        {
          "name": "",
          "type": "address"
        }
      ],
      "payable": false,
      "stateMutability": "view",
      "type": "function"
    },
    {
      "constant": true,
      "inputs": [
        {
          "name": "",
          "type": "address"
        },
        {
          "name": "",
          "type": "uint256"
        }
      ],
      "name": "_ordersHistory",
      "outputs": [
        {
          "name": "orderTime",
          "type": "uint256"
        },
        {
          "name": "orderContract",
          "type": "address"
        },
        {
          "name": "registryVersion",
          "type": "uint256"
        }
      ],
      "payable": false,
      "stateMutability": "view",
      "type": "function"
    },
    {
      "constant": false,
      "inputs": [
        {
          "name": "newOwner",
          "type": "address"
        }
      ],
      "name": "transferOwnership",
      "outputs": [],
      "payable": false,
      "stateMutability": "nonpayable",
      "type": "function"
    },
    {
      "anonymous": false,
      "inputs": [
        {
          "indexed": true,
          "name": "_newImpl",
          "type": "address"
        }
      ],
      "name": "UpgradedContract",
      "type": "event"
    },
    {
      "anonymous": false,
      "inputs": [
        {
          "indexed": true,
          "name": "previousOwner",
          "type": "address"
        },
        {
          "indexed": true,
          "name": "newOwner",
          "type": "address"
        }
      ],
      "name": "OwnershipTransferred",
      "type": "event"
    },
    {
      "anonymous": false,
      "inputs": [
        {
          "indexed": false,
          "name": "manufacturer",
          "type": "address"
        },
        {
          "indexed": false,
          "name": "orderContract",
          "type": "address"
        }
      ],
      "name": "LogOrderCreated",
      "type": "event"
    },
    {
      "anonymous": false,
      "inputs": [
        {
          "indexed": false,
          "name": "receiver",
          "type": "address"
        },
        {
          "indexed": false,
          "name": "amount",
          "type": "uint256"
        }
      ],
      "name": "LogWithdraw",
      "type": "event"
    },
    {
      "anonymous": false,
      "inputs": [
        {
          "indexed": false,
          "name": "bannedUser",
          "type": "address"
        },
        {
          "indexed": false,
          "name": "added",
          "type": "bool"
        }
      ],
      "name": "LogBlacklisted",
      "type": "event"
    },
    {
      "constant": false,
      "inputs": [
        {
          "name": "inTokenContract",
          "type": "address"
        }
      ],
      "name": "init",
      "outputs": [],
      "payable": false,
      "stateMutability": "nonpayable",
      "type": "function"
    },
    {
      "constant": false,
      "inputs": [],
      "name": "init",
      "outputs": [],
      "payable": false,
      "stateMutability": "nonpayable",
      "type": "function"
    },
    {
      "constant": true,
      "inputs": [],
      "name": "tokenContract",
      "outputs": [
        {
          "name": "",
          "type": "address"
        }
      ],
      "payable": false,
      "stateMutability": "view",
      "type": "function"
    },
    {
      "constant": false,
      "inputs": [
        {
          "name": "inTokenContract",
          "type": "address"
        }
      ],
      "name": "setTokenContract",
      "outputs": [],
      "payable": false,
      "stateMutability": "nonpayable",
      "type": "function"
    },
    {
      "constant": true,
      "inputs": [],
      "name": "productionRegistry",
      "outputs": [
        {
          "name": "",
          "type": "address"
        }
      ],
      "payable": false,
      "stateMutability": "view",
      "type": "function"
    },
    {
      "constant": false,
      "inputs": [
        {
          "name": "registry",
          "type": "address"
        }
      ],
      "name": "setProductionRegistry",
      "outputs": [],
      "payable": false,
      "stateMutability": "nonpayable",
      "type": "function"
    },
    {
      "constant": true,
      "inputs": [
        {
          "name": "blacklistedAddress",
          "type": "address"
        }
      ],
      "name": "isBlacklisted",
      "outputs": [
        {
          "name": "",
          "type": "bool"
        }
      ],
      "payable": false,
      "stateMutability": "view",
      "type": "function"
    },
    {
      "constant": true,
      "inputs": [
        {
          "name": "_quantity",
          "type": "uint256"
        },
        {
          "name": "_pricePerUnit",
          "type": "uint256"
        }
      ],
      "name": "calculateServiceTax",
      "outputs": [
        {
          "name": "",
          "type": "uint256"
        }
      ],
      "payable": false,
      "stateMutability": "view",
      "type": "function"
    },
    {
      "constant": false,
      "inputs": [
        {
          "name": "_consumer",
          "type": "address"
        },
        {
          "name": "_manufacturer",
          "type": "address"
        },
        {
          "name": "_quantity",
          "type": "uint256"
        },
        {
          "name": "_form",
          "type": "uint8"
        },
        {
          "name": "_engravingText",
          "type": "string"
        },
        {
          "name": "_pricePerUnit",
          "type": "uint256"
        },
        {
          "name": "_shipmentAddress",
          "type": "string"
        },
        {
          "name": "_freightAgent",
          "type": "bytes32"
        }
      ],
      "name": "createContractForConsumer",
      "outputs": [
        {
          "name": "",
          "type": "address"
        }
      ],
      "payable": true,
      "stateMutability": "payable",
      "type": "function"
    },
    {
      "constant": false,
      "inputs": [
        {
          "name": "_manufacturer",
          "type": "address"
        },
        {
          "name": "_quantity",
          "type": "uint256"
        },
        {
          "name": "_form",
          "type": "uint8"
        },
        {
          "name": "_engravingText",
          "type": "string"
        },
        {
          "name": "_pricePerUnit",
          "type": "uint256"
        },
        {
          "name": "_shipmentAddress",
          "type": "string"
        },
        {
          "name": "_freightAgent",
          "type": "bytes32"
        }
      ],
      "name": "createContract",
      "outputs": [
        {
          "name": "",
          "type": "address"
        }
      ],
      "payable": true,
      "stateMutability": "payable",
      "type": "function"
    },
    {
      "constant": true,
      "inputs": [
        {
          "name": "historyAddress",
          "type": "address"
        },
        {
          "name": "index",
          "type": "uint256"
        }
      ],
      "name": "ordersHistory",
      "outputs": [
        {
          "name": "",
          "type": "uint256"
        },
        {
          "name": "",
          "type": "address"
        },
        {
          "name": "",
          "type": "uint256"
        }
      ],
      "payable": false,
      "stateMutability": "view",
      "type": "function"
    },
    {
      "constant": true,
      "inputs": [
        {
          "name": "consumer",
          "type": "address"
        }
      ],
      "name": "getOrdersHistoryLength",
      "outputs": [
        {
          "name": "",
          "type": "uint256"
        }
      ],
      "payable": false,
      "stateMutability": "view",
      "type": "function"
    },
    {
      "constant": false,
      "inputs": [
        {
          "name": "user",
          "type": "address"
        }
      ],
      "name": "addToBlacklist",
      "outputs": [
        {
          "name": "",
          "type": "bool"
        }
      ],
      "payable": false,
      "stateMutability": "nonpayable",
      "type": "function"
    },
    {
      "constant": false,
      "inputs": [
        {
          "name": "user",
          "type": "address"
        }
      ],
      "name": "removeFromBlacklist",
      "outputs": [
        {
          "name": "",
          "type": "bool"
        }
      ],
      "payable": false,
      "stateMutability": "nonpayable",
      "type": "function"
    },
    {
      "constant": false,
      "inputs": [],
      "name": "withdraw",
      "outputs": [],
      "payable": false,
      "stateMutability": "nonpayable",
      "type": "function"
    },
    {
      "constant": false,
      "inputs": [
        {
          "name": "to",
          "type": "address"
        }
      ],
      "name": "withdrawTo",
      "outputs": [],
      "payable": false,
      "stateMutability": "nonpayable",
      "type": "function"
    }
  ],
  "bytecode": "0x608060405234801561001057600080fd5b50613e22806100206000396000f300608060405260043610620001625763ffffffff7c010000000000000000000000000000000000000000000000000000000060003504166319ab453c8114620001675780631cdd3be3146200018d5780633ccfd60b14620001c557806344337ea114620001dd5780634823e9191462000201578063537df3b6146200023757806355a373d6146200025b5780636026e277146200028f57806365065ce514620002a75780636b42fcb914620002f457806371d0e1fd14620003a957806372b0d90c14620003c157806383f94db714620003e557806385f2b3f61462000409578063893d20e8146200042d5780638da5cb5b146200044557806390fe0552146200045d5780639caba211146200047b5780639e72370b1462000493578063bbcd5bbe14620004ab578063c774605114620004cf578063e12ff9f214620004f6578063e1c7392a14620005a0578063f2fde38b14620005b8578063fe575a8714620005dc575b600080fd5b3480156200017457600080fd5b506200018b600160a060020a036004351662000600565b005b3480156200019a57600080fd5b50620001b1600160a060020a0360043516620006ed565b604080519115158252519081900360200190f35b348015620001d257600080fd5b506200018b62000702565b348015620001ea57600080fd5b50620001b1600160a060020a036004351662000926565b3480156200020e57600080fd5b5062000225600160a060020a03600435166200093b565b60408051918252519081900360200190f35b3480156200024457600080fd5b50620001b1600160a060020a036004351662000956565b3480156200026857600080fd5b506200027362000965565b60408051600160a060020a039092168252519081900360200190f35b3480156200029c57600080fd5b506200027362000974565b348015620002b457600080fd5b50620002ce600160a060020a036004351660243562000983565b60408051938452600160a060020a03909216602084015282820152519081900360600190f35b604080516020601f6084356004818101359283018490048402850184019095528184526200027394600160a060020a03813581169560248035909216956044359560ff606435169536959460a4949391019190819084018382808284375050604080516020601f818a01358b0180359182018390048302840183018552818452989b8a359b909a9099940197509195509182019350915081908401838280828437509497505093359450620009e49350505050565b348015620003b657600080fd5b506200027362000aab565b348015620003ce57600080fd5b506200018b600160a060020a036004351662000aba565b348015620003f257600080fd5b506200018b600160a060020a036004351662000cd9565b3480156200041657600080fd5b506200018b600160a060020a036004351662000dbd565b3480156200043a57600080fd5b506200027362000f83565b3480156200045257600080fd5b506200027362000f92565b3480156200046a57600080fd5b506200022560043560243562000fa1565b3480156200048857600080fd5b506200027362001048565b348015620004a057600080fd5b506200027362001057565b348015620004b857600080fd5b506200018b600160a060020a036004351662001066565b348015620004dc57600080fd5b50620002ce600160a060020a03600435166024356200122c565b604080516020601f6064356004818101359283018490048402850184019095528184526200027394600160a060020a0381351694602480359560ff60443516953695608494930191819084018382808284375050604080516020601f818a01358b0180359182018390048302840183018552818452989b8a359b909a9099940197509195509182019350915081908401838280828437509497505093359450620012789350505050565b348015620005ad57600080fd5b506200018b620013bd565b348015620005c557600080fd5b506200018b600160a060020a036004351662001446565b348015620005e957600080fd5b50620001b1600160a060020a036004351662001634565b60035474010000000000000000000000000000000000000000900460ff16156200067a576040805160008051602062003dd7833981519152815260206004820152601760248201527f5468652072656769737472792077617320696e69746564000000000000000000604482015290519081900360640190fd5b62000684620013bd565b600380547fffffffffffffffffffffff00ffffffffffffffffffffffffffffffffffffffff600160a060020a0390931673ffffffffffffffffffffffffffffffffffffffff19909116179190911674010000000000000000000000000000000000000000179055565b60046020526000908152604090205460ff1681565b6001546000908190600160a060020a0316331462000796576040805160008051602062003dd7833981519152815260206004820152602481018290527f546865207573657220657865637574696e67207468697320616374696f6e206960448201527f73206e6f7420746865206f776e6572206f66207468697320636f6e7472616374606482015290519081900360840190fd5b600354604080517f70a082310000000000000000000000000000000000000000000000000000000081523060048201529051600160a060020a03909216935083916370a08231916024808201926020929091908290030181600087803b1580156200080057600080fd5b505af115801562000815573d6000803e3d6000fd5b505050506040513d60208110156200082c57600080fd5b5051600154604080517fa9059cbb000000000000000000000000000000000000000000000000000000008152600160a060020a0392831660048201526024810184905290519293509084169163a9059cbb916044808201926020929091908290030181600087803b158015620008a157600080fd5b505af1158015620008b6573d6000803e3d6000fd5b505050506040513d6020811015620008cd57600080fd5b50511515620008db57600080fd5b60015460408051600160a060020a0390921682526020820183905280517f4ce7033d118120e254016dccf195288400b28fc8936425acd5f17ce2df3ab7089281900390910190a15050565b60006200093560018362001652565b92915050565b600160a060020a031660009081526005602052604090205490565b60006200093560008362001652565b600354600160a060020a031690565b600354600160a060020a031681565b600160a060020a038216600090815260056020526040812080548291829182919086908110620009af57fe5b60009182526020909120600390910201805460018201546002909201549098600160a060020a03909216975095509350505050565b600354600090600160a060020a03163314620009ff57600080fd5b32600160a060020a038a161462000a8c576040805160008051602062003dd7833981519152815260206004820152603260248201527f54686520696e69746961746f72206f66207468697320636f6e7472616374206960448201527f73206e6f742074686520636f6e73756d65720000000000000000000000000000606482015290519081900360840190fd5b62000a9e89898989898989896200174a565b9998505050505050505050565b600254600160a060020a031690565b6001546000908190600160a060020a0316331462000b4e576040805160008051602062003dd7833981519152815260206004820152602481018290527f546865207573657220657865637574696e67207468697320616374696f6e206960448201527f73206e6f7420746865206f776e6572206f66207468697320636f6e7472616374606482015290519081900360840190fd5b600354604080517f70a082310000000000000000000000000000000000000000000000000000000081523060048201529051600160a060020a03909216935083916370a08231916024808201926020929091908290030181600087803b15801562000bb857600080fd5b505af115801562000bcd573d6000803e3d6000fd5b505050506040513d602081101562000be457600080fd5b5051604080517fa9059cbb000000000000000000000000000000000000000000000000000000008152600160a060020a0386811660048301526024820184905291519293509084169163a9059cbb916044808201926020929091908290030181600087803b15801562000c5657600080fd5b505af115801562000c6b573d6000803e3d6000fd5b505050506040513d602081101562000c8257600080fd5b5051151562000c9057600080fd5b60408051600160a060020a03851681526020810183905281517f4ce7033d118120e254016dccf195288400b28fc8936425acd5f17ce2df3ab708929181900390910190a1505050565b600154600160a060020a0316331462000d68576040805160008051602062003dd7833981519152815260206004820152602481018290527f546865207573657220657865637574696e67207468697320616374696f6e206960448201527f73206e6f7420746865206f776e6572206f66207468697320636f6e7472616374606482015290519081900360840190fd5b6000805473ffffffffffffffffffffffffffffffffffffffff1916600160a060020a038316908117825560405190917fbb0e7ec411133f2e650f59a5c752be1a0f548c2140421e80171b2f9b1ff833a991a250565b60035474010000000000000000000000000000000000000000900460ff16151562000e38576040805160008051602062003dd7833981519152815260206004820152601b60248201527f54686520726567697374727920776173206e6f7420696e697465640000000000604482015290519081900360640190fd5b600154600160a060020a0316331462000ec7576040805160008051602062003dd7833981519152815260206004820152602481018290527f546865207573657220657865637574696e67207468697320616374696f6e206960448201527f73206e6f7420746865206f776e6572206f66207468697320636f6e7472616374606482015290519081900360840190fd5b600160a060020a038116151562000f54576040805160008051602062003dd7833981519152815260206004820152602560248201527f496e76616c6964206164647265737320666f7220726567697374727920636f6e60448201527f7472616374000000000000000000000000000000000000000000000000000000606482015290519081900360840190fd5b6002805473ffffffffffffffffffffffffffffffffffffffff1916600160a060020a0392909216919091179055565b600154600160a060020a031690565b600154600160a060020a031681565b600254604080517f90fe055200000000000000000000000000000000000000000000000000000000815260048101859052602481018490529051600092600160a060020a03169182916390fe05529160448082019260209290919082900301818887803b1580156200101257600080fd5b505af115801562001027573d6000803e3d6000fd5b505050506040513d60208110156200103e57600080fd5b5051949350505050565b600254600160a060020a031681565b600054600160a060020a031681565b60035474010000000000000000000000000000000000000000900460ff161515620010e1576040805160008051602062003dd7833981519152815260206004820152601b60248201527f54686520726567697374727920776173206e6f7420696e697465640000000000604482015290519081900360640190fd5b600154600160a060020a0316331462001170576040805160008051602062003dd7833981519152815260206004820152602481018290527f546865207573657220657865637574696e67207468697320616374696f6e206960448201527f73206e6f7420746865206f776e6572206f66207468697320636f6e7472616374606482015290519081900360840190fd5b600160a060020a0381161515620011fd576040805160008051602062003dd7833981519152815260206004820152602660248201527f496e76616c6964206164647265737320666f722074686520746f6b656e20636f60448201527f6e74726163740000000000000000000000000000000000000000000000000000606482015290519081900360840190fd5b6003805473ffffffffffffffffffffffffffffffffffffffff1916600160a060020a0392909216919091179055565b6005602052816000526040600020818154811015156200124857fe5b6000918252602090912060039091020180546001820154600290920154909350600160a060020a03909116915083565b600254600090600160a060020a031615156200130a576040805160008051602062003dd7833981519152815260206004820152602b60248201527f5468652070726f64756374696f6e20726567697374727920616464726573732060448201527f776173206e6f7420736574000000000000000000000000000000000000000000606482015290519081900360840190fd5b3360009081526004602052604090205460ff16156200139f576040805160008051602062003dd7833981519152815260206004820152602160248201527f546865206d6573736167652073656e64657220697320626c61636b6c6973746560448201527f6400000000000000000000000000000000000000000000000000000000000000606482015290519081900360840190fd5b620013b133898989898989896200174a565b98975050505050505050565b600154600160a060020a03161562001425576040805160008051602062003dd7833981519152815260206004820152601e60248201527f546865206f776e65722068617320616c7265616479206265656e207365740000604482015290519081900360640190fd5b6001805473ffffffffffffffffffffffffffffffffffffffff191633179055565b600154600160a060020a03161515620014d5576040805160008051602062003dd7833981519152815260206004820152602860248201527f5468697320636f6e747261637420646f6573206e6f74206861766520616e206f60448201527f776e657220736574000000000000000000000000000000000000000000000000606482015290519081900360840190fd5b600154600160a060020a0316331462001564576040805160008051602062003dd7833981519152815260206004820152602481018290527f546865207573657220657865637574696e67207468697320616374696f6e206960448201527f73206e6f7420746865206f776e6572206f66207468697320636f6e7472616374606482015290519081900360840190fd5b600160a060020a0381161515620015cb576040805160008051602062003dd7833981519152815260206004820152601960248201527f496e76616c6964206e6577206f776e6572206164647265737300000000000000604482015290519081900360640190fd5b600154604051600160a060020a038084169216907f8be0079c531659141344cd1fd0a4f28419497f9722a3daafe3b4186f6b6457e090600090a36001805473ffffffffffffffffffffffffffffffffffffffff1916600160a060020a0392909216919091179055565b600160a060020a031660009081526004602052604090205460ff1690565b600154600090600160a060020a03163314620016e4576040805160008051602062003dd7833981519152815260206004820152602481018290527f546865207573657220657865637574696e67207468697320616374696f6e206960448201527f73206e6f7420746865206f776e6572206f66207468697320636f6e7472616374606482015290519081900360840190fd5b600160a060020a038216600081815260046020908152604091829020805460ff191687151590811790915582519384529083015280517f94eeecc7323f97fb4e1d0a4ea03c1d89a7314c6d0a2a8986d21c3e3c9e8630d79281900390910190a192915050565b60025460009081908190819081908190600160a060020a03161515620017e6576040805160008051602062003dd7833981519152815260206004820152602b60248201527f5468652070726f64756374696f6e20726567697374727920616464726573732060448201527f776173206e6f7420736574000000000000000000000000000000000000000000606482015290519081900360840190fd5b3360009081526004602052604090205460ff16156200187b576040805160008051602062003dd7833981519152815260206004820152602160248201527f546865206d6573736167652073656e64657220697320626c61636b6c6973746560448201527f6400000000000000000000000000000000000000000000000000000000000000606482015290519081900360840190fd5b6200188d8c8a63ffffffff62001ea616565b945034851115620018ee576040805160008051602062003dd7833981519152815260206004820152601960248201527f4e6f7420656e6f7567682076616c756520737570706c69656400000000000000604482015290519081900360640190fd5b620018fa8c8a62000fa1565b9350600360009054906101000a9004600160a060020a0316925082600160a060020a031663dd62ed3e8f306040518363ffffffff167c01000000000000000000000000000000000000000000000000000000000281526004018083600160a060020a0316600160a060020a0316815260200182600160a060020a0316600160a060020a0316815260200192505050602060405180830381600087803b158015620019a357600080fd5b505af1158015620019b8573d6000803e3d6000fd5b505050506040513d6020811015620019cf57600080fd5b505191508382101562001a32576040805160008051602062003dd7833981519152815260206004820152601460248201527f4e6f7420656e6f75676820616c6c6f77616e6365000000000000000000000000604482015290519081900360640190fd5b82600160a060020a03166323b872dd8f30876040518463ffffffff167c01000000000000000000000000000000000000000000000000000000000281526004018084600160a060020a0316600160a060020a0316815260200183600160a060020a0316600160a060020a031681526020018281526020019350505050602060405180830381600087803b15801562001ac957600080fd5b505af115801562001ade573d6000803e3d6000fd5b505050506040513d602081101562001af557600080fd5b5051151562001b7a576040805160008051602062003dd7833981519152815260206004820152602960248201527f436f756c64206e6f7420776974686472617720746f6b656e7320666f7220736560448201527f7276696365207461780000000000000000000000000000000000000000000000606482015290519081900360840190fd5b6002548590600160a060020a03168f8f8f8f8f8f8f8f62001b9a62002002565b600160a060020a03808b168252898116602083015288166040820152606081018790526080810186600181111562001bce57fe5b60ff16815260200180602001858152602001806020018460001916600019168152602001838103835287818151815260200191508051906020019080838360005b8381101562001c2957818101518382015260200162001c0f565b50505050905090810190601f16801562001c575780820380516001836020036101000a031916815260200191505b50838103825285518152855160209182019187019080838360005b8381101562001c8c57818101518382015260200162001c72565b50505050905090810190601f16801562001cba5780820380516001836020036101000a031916815260200191505b509b5050505050505050505050506040518091039082f08015801562001ce4573d6000803e3d6000fd5b5090509050600260009054906101000a9004600160a060020a0316600160a060020a031663fc5ba6c08f8f848d6040518563ffffffff167c01000000000000000000000000000000000000000000000000000000000281526004018085600160a060020a0316600160a060020a0316815260200184600160a060020a0316600160a060020a0316815260200183600160a060020a0316600160a060020a03168152602001828152602001945050505050602060405180830381600087803b15801562001daf57600080fd5b505af115801562001dc4573d6000803e3d6000fd5b505050506040513d602081101562001ddb57600080fd5b5050600160a060020a038e166108fc62001dfc348863ffffffff62001ed316565b6040518115909202916000818181858888f1935050505015801562001e25573d6000803e3d6000fd5b5062001e328e8262001ee6565b7f191cd9d162d776ed9135dee0e91c32537273a31abb63adf1bcaa8d5dcf1d3e9d8d826040518083600160a060020a0316600160a060020a0316815260200182600160a060020a0316600160a060020a031681526020019250505060405180910390a19d9c50505050505050505050505050565b600082151562001eb95750600062000935565b5081810281838281151562001eca57fe5b04146200093557fe5b60008282111562001ee057fe5b50900390565b600254600160a060020a03838116600090815260056020908152604080832081516060810183524281528786168185015282517f6d1eab7d0000000000000000000000000000000000000000000000000000000081528351969097169691959094928501938793636d1eab7d9360048082019492918390030190829087803b15801562001f7257600080fd5b505af115801562001f87573d6000803e3d6000fd5b505050506040513d602081101562001f9e57600080fd5b505190528154600180820184556000938452602093849020835160039093020191825592820151928101805473ffffffffffffffffffffffffffffffffffffffff1916600160a060020a039094169390931790925560400151600290910155505050565b604051611dc3806200201483390190560060806040819052600a805460ff1916905562001dc33881900390819083398101604090815281516020830151918301516060840151608085015160a086015160c087015160e088015161010089015160008054600160a060020a031916331790559698959694959394928401939192910190600160a060020a0389161515620000e957604080517f08c379a000000000000000000000000000000000000000000000000000000000815260206004820152601a60248201527f496e636f72726563742072656769737472792061646472657373000000000000604482015290519081900360640190fd5b600160a060020a03881615156200016157604080517f08c379a000000000000000000000000000000000000000000000000000000000815260206004820152601a60248201527f496e636f727265637420636f6e73756d65722061646472657373000000000000604482015290519081900360640190fd5b600160a060020a0387161515620001d957604080517f08c379a000000000000000000000000000000000000000000000000000000000815260206004820152601e60248201527f496e636f7272656374206d616e75666163747572657220616464726573730000604482015290519081900360640190fd5b600086116200024957604080517f08c379a000000000000000000000000000000000000000000000000000000000815260206004820152601960248201527f5175616e74697479206d75737420626520706f73697469766500000000000000604482015290519081900360640190fd5b60008311620002b957604080517f08c379a000000000000000000000000000000000000000000000000000000000815260206004820152601660248201527f5072696365206d75737420626520706f73697469766500000000000000000000604482015290519081900360640190fd5b6002856001811115620002c857fe5b106200033557604080517f08c379a000000000000000000000000000000000000000000000000000000000815260206004820152601260248201527f496e76616c696420666f726d2076616c75650000000000000000000000000000604482015290519081900360640190fd5b8351600010620003a657604080517f08c379a000000000000000000000000000000000000000000000000000000000815260206004820152601360248201527f546f6f2073686f7274206f662061207465787400000000000000000000000000604482015290519081900360640190fd5b81516000106200041757604080517f08c379a000000000000000000000000000000000000000000000000000000000815260206004820152601760248201527f546f6f2073686f7274206f6620616e2061646472657373000000000000000000604482015290519081900360640190fd5b8015156200048657604080517f08c379a000000000000000000000000000000000000000000000000000000000815260206004820152601860248201527f4e6f20667269676874206167656e7420737570706c6965640000000000000000604482015290519081900360640190fd5b620004a086846401000000006200168a620005d682021704565b3410156200053557604080517f08c379a000000000000000000000000000000000000000000000000000000000815260206004820152603460248201527f496e73756666696369656e742066756e647320737570706c69656420666f722060448201527f7175616e746974792074696d6573207072696365000000000000000000000000606482015290519081900360840190fd5b60018054600160a060020a03808c16600160a060020a0319928316178355600280548c831690841617905560038054918b1691909216179055600487905560058054879260ff199091169083818111156200058c57fe5b02179055508351620005a690600690602087019062000609565b50600783905560088190558151620005c690600990602085019062000609565b50505050505050505050620006ae565b6000821515620005e95750600062000603565b50818102818382811515620005fa57fe5b04146200060357fe5b92915050565b828054600181600116156101000203166002900490600052602060002090601f016020900481019282601f106200064c57805160ff19168380011785556200067c565b828001600101855582156200067c579182015b828111156200067c5782518255916020019190600101906200065f565b506200068a9291506200068e565b5090565b620006ab91905b808211156200068a576000815560010162000695565b90565b61170580620006be6000396000f3006080604052600436106101065763ffffffff7c010000000000000000000000000000000000000000000000000000000060003504166317fc45e2811461010b578063200d2ed2146101325780634b4805d01461016b5780634c33fe94146101f55780635ee574131461022a578063715018a61461024f57806374754282146102665780637af07f1e146102975780637b103999146102ac5780638da5cb5b146102c157806393af0292146102d65780639c829bf2146102f75780639f0059201461030c578063a035b1fe1461032d578063ab0da5a914610342578063b4fd729614610363578063dd0b281e14610378578063f2fde38b14610399578063fbbf93a0146103ba575b600080fd5b34801561011757600080fd5b50610120610505565b60408051918252519081900360200190f35b34801561013e57600080fd5b5061014761050b565b6040518082600581111561015757fe5b60ff16815260200191505060405180910390f35b34801561017757600080fd5b50610180610514565b6040805160208082528351818301528351919283929083019185019080838360005b838110156101ba5781810151838201526020016101a2565b50505050905090810190601f1680156101e75780820380516001836020036101000a031916815260200191505b509250505060405180910390f35b34801561020157600080fd5b50610216600160a060020a03600435166105a2565b604080519115158252519081900360200190f35b34801561023657600080fd5b5061023f610908565b6040518082600181111561015757fe5b34801561025b57600080fd5b50610264610911565b005b34801561027257600080fd5b5061027b61097d565b60408051600160a060020a039092168252519081900360200190f35b3480156102a357600080fd5b5061018061098c565b3480156102b857600080fd5b5061027b6109e7565b3480156102cd57600080fd5b5061027b6109f6565b3480156102e257600080fd5b50610216600160a060020a0360043516610a05565b34801561030357600080fd5b50610120610c0e565b34801561031857600080fd5b50610216600160a060020a0360043516610c14565b34801561033957600080fd5b50610120610e36565b34801561034e57600080fd5b50610216600160a060020a0360043516610e3c565b34801561036f57600080fd5b5061027b611030565b34801561038457600080fd5b50610216600160a060020a036004351661103f565b3480156103a557600080fd5b50610264600160a060020a0360043516611233565b3480156103c657600080fd5b506103cf611256565b60408051600160a060020a03808c1682528a81166020830152891691810191909152606081018790526080810186600181111561040857fe5b60ff16815260200180602001858152602001806020018460001916600019168152602001838103835287818151815260200191508051906020019080838360005b83811015610461578181015183820152602001610449565b50505050905090810190601f16801561048e5780820380516001836020036101000a031916815260200191505b50838103825285518152855160209182019187019080838360005b838110156104c15781810151838201526020016104a9565b50505050905090810190601f1680156104ee5780820380516001836020036101000a031916815260200191505b509b50505050505050505050505060405180910390f35b60045481565b600a5460ff1681565b6006805460408051602060026001851615610100026000190190941693909304601f8101849004840282018401909252818152929183018282801561059a5780601f1061056f5761010080835404028352916020019161059a565b820191906000526020600020905b81548152906001019060200180831161057d57829003601f168201915b505050505081565b6001546000908190600160a060020a0316331461063457604080516000805160206116ba833981519152815260206004820152603260248201527f546865206d6573736167652073656e64657220776173206e6f7420746865207060448201527f726f64756374696f6e2072656769737472790000000000000000000000000000606482015290519081900360840190fd5b6003548390600160a060020a038083169116146106c657604080516000805160206116ba833981519152815260206004820152602b60248201527f546865206d6573736167652073656e64657220776173206e6f7420746865206d60448201527f616e756661637475726572000000000000000000000000000000000000000000606482015290519081900360840190fd5b6004600a5460ff1660058111156106d957fe5b141561075a57604080516000805160206116ba833981519152815260206004820152602c60248201527f43616e63656c6174696f6e2063616e6e6f742068617070656e20696e20636f6d60448201527f706c657465642073746174650000000000000000000000000000000000000000606482015290519081900360840190fd5b6000600a5460ff16600581111561076d57fe5b14156107ee57604080516000805160206116ba833981519152815260206004820152602d60248201527f43616e63656c6174696f6e2063616e6e6f742068617070656e20696e2072657360448201527f706f6e64696e6720737461746500000000000000000000000000000000000000606482015290519081900360840190fd5b6002600a5460ff16600581111561080157fe5b141561088257604080516000805160206116ba833981519152815260206004820152602b60248201527f43616e63656c6174696f6e2063616e6e6f742068617070656e20696e2072656a60448201527f6563746564207374617465000000000000000000000000000000000000000000606482015290519081900360840190fd5b600a805460ff811693506005919060ff191660018302179055507f015c40ec68261c8b1d4b8a1e71cb63655eb21d59b936c37c69c484b6342cc353826005604051808360058111156108d057fe5b60ff1681526020018260058111156108e457fe5b60ff1681526020019250505060405180910390a16109006113db565b949350505050565b60055460ff1681565b600054600160a060020a0316331461092857600080fd5b60008054604051600160a060020a03909116917ff8df31144d9c2f0f6b59d69b8b98abd5459d07f2742c4df920b25aae33c6482091a26000805473ffffffffffffffffffffffffffffffffffffffff19169055565b600354600160a060020a031681565b6009805460408051602060026001851615610100026000190190941693909304601f8101849004840282018401909252818152929183018282801561059a5780601f1061056f5761010080835404028352916020019161059a565b600154600160a060020a031681565b600054600160a060020a031681565b600154600090600160a060020a03163314610a9557604080516000805160206116ba833981519152815260206004820152603260248201527f546865206d6573736167652073656e64657220776173206e6f7420746865207060448201527f726f64756374696f6e2072656769737472790000000000000000000000000000606482015290519081900360840190fd5b6003548290600160a060020a03808316911614610b2757604080516000805160206116ba833981519152815260206004820152602b60248201527f546865206d6573736167652073656e64657220776173206e6f7420746865206d60448201527f616e756661637475726572000000000000000000000000000000000000000000606482015290519081900360840190fd5b600380600a5460ff166005811115610b3b57fe5b14610bba57604080516000805160206116ba8339815191528152602060048201526024808201527f496e636f72726563742070726f64756374696f6e20636f6e747261637420737460448201527f6174757300000000000000000000000000000000000000000000000000000000606482015290519081900360840190fd5b600a805460ff191660049081179091556040805160038152602081019290925280517f015c40ec68261c8b1d4b8a1e71cb63655eb21d59b936c37c69c484b6342cc3539281900390910190a16109006114f4565b60085481565b600154600090600160a060020a03163314610ca457604080516000805160206116ba833981519152815260206004820152603260248201527f546865206d6573736167652073656e64657220776173206e6f7420746865207060448201527f726f64756374696f6e2072656769737472790000000000000000000000000000606482015290519081900360840190fd5b6003548290600160a060020a03808316911614610d3657604080516000805160206116ba833981519152815260206004820152602b60248201527f546865206d6573736167652073656e64657220776173206e6f7420746865206d60448201527f616e756661637475726572000000000000000000000000000000000000000000606482015290519081900360840190fd5b600080600a5460ff166005811115610d4a57fe5b14610dc957604080516000805160206116ba8339815191528152602060048201526024808201527f496e636f72726563742070726f64756374696f6e20636f6e747261637420737460448201527f6174757300000000000000000000000000000000000000000000000000000000606482015290519081900360840190fd5b600a805460ff191660019081179091556040517f015c40ec68261c8b1d4b8a1e71cb63655eb21d59b936c37c69c484b6342cc3539160009180835b60ff168152602001826005811115610e1857fe5b60ff1681526020019250505060405180910390a15060019392505050565b60075481565b600154600090600160a060020a03163314610ecc57604080516000805160206116ba833981519152815260206004820152603260248201527f546865206d6573736167652073656e64657220776173206e6f7420746865207060448201527f726f64756374696f6e2072656769737472790000000000000000000000000000606482015290519081900360840190fd5b6003548290600160a060020a03808316911614610f5e57604080516000805160206116ba833981519152815260206004820152602b60248201527f546865206d6573736167652073656e64657220776173206e6f7420746865206d60448201527f616e756661637475726572000000000000000000000000000000000000000000606482015290519081900360840190fd5b600080600a5460ff166005811115610f7257fe5b14610ff157604080516000805160206116ba8339815191528152602060048201526024808201527f496e636f72726563742070726f64756374696f6e20636f6e747261637420737460448201527f6174757300000000000000000000000000000000000000000000000000000000606482015290519081900360840190fd5b600a805460ff191660029081179091556040517f015c40ec68261c8b1d4b8a1e71cb63655eb21d59b936c37c69c484b6342cc3539160009180836108d0565b600254600160a060020a031681565b600154600090600160a060020a031633146110cf57604080516000805160206116ba833981519152815260206004820152603260248201527f546865206d6573736167652073656e64657220776173206e6f7420746865207060448201527f726f64756374696f6e2072656769737472790000000000000000000000000000606482015290519081900360840190fd5b6003548290600160a060020a0380831691161461116157604080516000805160206116ba833981519152815260206004820152602b60248201527f546865206d6573736167652073656e64657220776173206e6f7420746865206d60448201527f616e756661637475726572000000000000000000000000000000000000000000606482015290519081900360840190fd5b600180600a5460ff16600581111561117557fe5b146111f457604080516000805160206116ba8339815191528152602060048201526024808201527f496e636f72726563742070726f64756374696f6e20636f6e747261637420737460448201527f6174757300000000000000000000000000000000000000000000000000000000606482015290519081900360840190fd5b600a805460ff191660039081179091556040517f015c40ec68261c8b1d4b8a1e71cb63655eb21d59b936c37c69c484b6342cc353916001918083610e04565b600054600160a060020a0316331461124a57600080fd5b6112538161160d565b50565b600180546002805460035460045460055460075460085460068054604080516020601f6000199e851615610100029e909e019093169a909a049b8c0182900482028a01820190528a895260009a8b9a8b9a8b9a8b9a60609a8c9a8c9a8c9a600160a060020a039788169a958816999490971697929660ff90921695909360099386918301828280156113295780601f106112fe57610100808354040283529160200191611329565b820191906000526020600020905b81548152906001019060200180831161130c57829003601f168201915b5050855460408051602060026001851615610100026000190190941693909304601f8101849004840282018401909252818152959950879450925084019050828280156113b75780601f1061138c576101008083540402835291602001916113b7565b820191906000526020600020905b81548152906001019060200180831161139a57829003601f168201915b50505050509150985098509850985098509850985098509850909192939495969798565b6001546000908190600160a060020a0316331461146d57604080516000805160206116ba833981519152815260206004820152603260248201527f546865206d6573736167652073656e64657220776173206e6f7420746865207060448201527f726f64756374696f6e2072656769737472790000000000000000000000000000606482015290519081900360840190fd5b50600254604051303191600160a060020a03169082156108fc029083906000818181858888f193505050501580156114a9573d6000803e3d6000fd5b50600254604080518381529051600160a060020a03909216917fec0fc0a7a8682f6e1e228b2173148bd49c9a2f7152ebd7b58e0b74819542c7fb9181900360200190a2600191505090565b6001546000908190600160a060020a0316331461158657604080516000805160206116ba833981519152815260206004820152603260248201527f546865206d6573736167652073656e64657220776173206e6f7420746865207060448201527f726f64756374696f6e2072656769737472790000000000000000000000000000606482015290519081900360840190fd5b50600354604051303191600160a060020a03169082156108fc029083906000818181858888f193505050501580156115c2573d6000803e3d6000fd5b50600354604080518381529051600160a060020a03909216917f95ed494383648968f3baf28a78446b0f5caef9133d4f2751d297579b65be6a809181900360200190a2600191505090565b600160a060020a038116151561162257600080fd5b60008054604051600160a060020a03808516939216917f8be0079c531659141344cd1fd0a4f28419497f9722a3daafe3b4186f6b6457e091a36000805473ffffffffffffffffffffffffffffffffffffffff1916600160a060020a0392909216919091179055565b600082151561169b575060006116b3565b508181028183828115156116ab57fe5b04146116b357fe5b92915050560008c379a000000000000000000000000000000000000000000000000000000000a165627a7a72305820dcf1f6db7ba122121081bf4e81f1257a4cf07903bef99f789bb4d268fd19e283002908c379a000000000000000000000000000000000000000000000000000000000a165627a7a7230582071c9c17e6b22d3373105820e8ba97251c03840439331cdc3bb17c554f440856d0029",
  "source": "pragma solidity ^0.4.23;\n\nimport \"../ProductionRegistry/IProductionRegistry.sol\";\nimport \"../ProductionContract.sol\";\nimport \"zeppelin-solidity/contracts/ownership/Ownable.sol\";\nimport \"zeppelin-solidity/contracts/math/SafeMath.sol\";\nimport \"zeppelin-solidity/contracts/token/ERC20/ERC20.sol\";\nimport \"./IProductionFactory.sol\";\nimport \"../Upgradeability/OwnableUpgradeableImplementation/OwnableUpgradeableImplementation.sol\";\n\ncontract ProductionFactory is IProductionFactory, OwnableUpgradeableImplementation {\n\tusing SafeMath for uint;\n\n\taddress public _productionRegistry;\n\taddress public _tokenContract;\n\n\tbool internal contractInited;\n\n\tstruct OrderHistoryEntry {\n\t\tuint orderTime;\n\t\taddress orderContract;\n\t\tuint registryVersion;\n\t}\n\n\tmapping(address => bool) public _isBlacklisted;\n\tmapping(address => OrderHistoryEntry[]) public _ordersHistory;\n\n\tmodifier productionRegistrySet() {\n\t\trequire(_productionRegistry != address(0), \"The production registry address was not set\");\n\t\t_;\n\t}\n\n\tmodifier notBlacklisted() {\n\t\trequire(!_isBlacklisted[msg.sender], \"The message sender is blacklisted\");\n\t\t_;\n\t}\n\n\tmodifier onlyNotInited() {\n        require(!contractInited, \"The registry was inited\");\n        _;\n    }\n\n    modifier onlyInited() {\n        require(contractInited, \"The registry was not inited\");\n        _;\n    }\n\n\tfunction init(address inTokenContract) onlyNotInited public {\n\t\tOwnableUpgradeableImplementation.init();\n\t\t_tokenContract = inTokenContract;\n\t\tcontractInited = true;\n\t}\n\n\tfunction tokenContract() public view returns(address) {\n\t\treturn _tokenContract;\n\t}\n\n\tfunction setTokenContract(address inTokenContract) public onlyInited onlyOwner {\n\t\trequire(inTokenContract != address(0), \"Invalid address for the token contract\");\n\t\t_tokenContract = inTokenContract;\n\t}\n\n\tmodifier onlyToken() {\n\t\trequire(msg.sender == _tokenContract);\n\t\t_;\n\t}\n\n\tfunction productionRegistry() public view returns(address) {\n\t\treturn _productionRegistry;\n\t}\n\n\tfunction setProductionRegistry(address registry) public onlyInited onlyOwner {\n\t\trequire(registry != address(0), \"Invalid address for registry contract\");\n\t\t_productionRegistry = registry;\n\t}\n\n\tfunction isBlacklisted(address blacklistedAddress) public view returns(bool) {\n\t\treturn _isBlacklisted[blacklistedAddress];\n\t}\n\n\tfunction calculateServiceTax(uint _quantity, uint _pricePerUnit) public view returns(uint) {\n\t\tIProductionRegistry registry = IProductionRegistry(_productionRegistry);\n\t\treturn registry.calculateServiceTax(_quantity, _pricePerUnit);\n\t}\n\n\tfunction createContractForConsumer(address _consumer, address _manufacturer, uint _quantity, ProductionContract.PRODUCT_FORM _form, string _engravingText, uint _pricePerUnit, string _shipmentAddress, bytes32 _freightAgent) public payable onlyToken returns(address) {\n\t\trequire(tx.origin == _consumer, \"The initiator of this contract is not the consumer\");\n\t\treturn createOrder(_consumer, _manufacturer, _quantity, _form, _engravingText, _pricePerUnit, _shipmentAddress, _freightAgent);\n\t}\n\n\tfunction createContract(address _manufacturer, uint _quantity, ProductionContract.PRODUCT_FORM _form, string _engravingText, uint _pricePerUnit, string _shipmentAddress, bytes32 _freightAgent) public payable productionRegistrySet notBlacklisted returns(address) {\n\t\treturn createOrder(msg.sender, _manufacturer, _quantity, _form, _engravingText, _pricePerUnit, _shipmentAddress, _freightAgent);\n\t}\n\n\tfunction createOrder(address _consumer, address _manufacturer, uint _quantity, ProductionContract.PRODUCT_FORM _form, string _engravingText, uint _pricePerUnit, string _shipmentAddress, bytes32 _freightAgent) internal productionRegistrySet notBlacklisted returns(address) {\n\t\tuint totalETHCost = _quantity.mul(_pricePerUnit);\n\t\trequire(msg.value >= totalETHCost, \"Not enough value supplied\");\n\t\tuint serviceTransactionTax = calculateServiceTax(_quantity, _pricePerUnit);\n\t\tERC20 tokenInterface = ERC20(_tokenContract);\n\t\tuint orderAllowance = tokenInterface.allowance(_consumer, address(this));\n\t\trequire(orderAllowance >= serviceTransactionTax, \"Not enough allowance\");\n\t\trequire(tokenInterface.transferFrom(_consumer, address(this), serviceTransactionTax), 'Could not withdraw tokens for service tax');\n\n\t\tProductionContract orderContract = (new ProductionContract).value(totalETHCost)(\n\t\t\t_productionRegistry,\n\t\t\t_consumer,\n\t\t\t_manufacturer,\n\t\t\t_quantity,\n\t\t\t_form,\n\t\t\t_engravingText,\n\t\t\t_pricePerUnit,\n\t\t\t_shipmentAddress,\n\t\t\t_freightAgent);\n\t\tIProductionRegistry(_productionRegistry).addOrder(_consumer, _manufacturer, orderContract, _pricePerUnit);\n\n\t\t_consumer.transfer(msg.value.sub(totalETHCost));\n\n\t\taddToOrdersHistory(_consumer, orderContract);\n\n\t\temit LogOrderCreated(_manufacturer, orderContract);\n\n\t\treturn address(orderContract);\n\t}\n\n\tfunction ordersHistory(address historyAddress, uint index) public view returns(uint, address, uint) {\n\t\tOrderHistoryEntry storage e = _ordersHistory[historyAddress][index];\n\t\treturn (e.orderTime, e.orderContract, e.registryVersion);\n\t}\n\n\tfunction addToOrdersHistory(address _consumer, address orderContract) internal {\n\t\tIProductionRegistry registry = IProductionRegistry(_productionRegistry);\n\t\t_ordersHistory[_consumer].push(OrderHistoryEntry({orderTime: now, orderContract: orderContract, registryVersion: registry.getRegistryVersion()}));\n\t}\n\n\tfunction getOrdersHistoryLength(address consumer) public view returns(uint) {\n\t\treturn _ordersHistory[consumer].length;\n\t}\n\n\tfunction blacklist(bool add, address user) private onlyOwner returns(bool) {\n\t\t_isBlacklisted[user] = add;\n\t\temit LogBlacklisted(user, add);\n\t}\n\n\tfunction addToBlacklist(address user) external returns(bool) {\n\t\treturn blacklist(true, user);\n\t}\n\n\tfunction removeFromBlacklist(address user) external returns(bool) {\n\t\treturn blacklist(false, user);\n\t}\n\n\tfunction withdraw() external onlyOwner {\n\t\tERC20 tokenInterface = ERC20(_tokenContract);\n\t\tuint withdrawBalance = tokenInterface.balanceOf(address(this));\n\t\trequire(tokenInterface.transfer(owner, withdrawBalance));\n\t\temit LogWithdraw(owner, withdrawBalance);\n\t}\n\n\tfunction withdrawTo(address to) external onlyOwner {\n\t\tERC20 tokenInterface = ERC20(_tokenContract);\n\t\tuint withdrawBalance = tokenInterface.balanceOf(address(this));\n\t\trequire(tokenInterface.transfer(to, withdrawBalance));\n\t\temit LogWithdraw(to, withdrawBalance);\n\t}\n}\n",
  "sourcePath": "/Users/georgispasov/Development/ARXUM/Demoapp_SC/contracts/ProductionFactory/ProductionFactory.sol",
  "compiler": {
    "name": "solc",
    "version": "0.4.24+commit.e67f0147.Emscripten.clang"
  },
  "schemaVersion": "2.0.0",
  "updatedAt": "2018-06-14T17:04:59.965Z"
}