{
  "contractName": "Vesting",
  "abi": [
    {
      "constant": true,
      "inputs": [],
      "name": "seventyFivePercentageClaimStartDate",
      "outputs": [
        {
          "name": "",
          "type": "uint256"
        }
      ],
      "payable": false,
      "stateMutability": "view",
      "type": "function"
    },
    {
      "constant": true,
      "inputs": [],
      "name": "SEVENTY_FIVE_PERCENTAGE_CLAIM_LOCK_DURATION",
      "outputs": [
        {
          "name": "",
          "type": "uint256"
        }
      ],
      "payable": false,
      "stateMutability": "view",
      "type": "function"
    },
    {
      "constant": true,
      "inputs": [],
      "name": "twentyFivePercentageClaimer",
      "outputs": [
        {
          "name": "",
          "type": "address"
        }
      ],
      "payable": false,
      "stateMutability": "view",
      "type": "function"
    },
    {
      "constant": true,
      "inputs": [],
      "name": "tokenInstance",
      "outputs": [
        {
          "name": "",
          "type": "address"
        }
      ],
      "payable": false,
      "stateMutability": "view",
      "type": "function"
    },
    {
      "constant": true,
      "inputs": [],
      "name": "TWENTY_FIVE_PERCENTAGE_DELIMITER",
      "outputs": [
        {
          "name": "",
          "type": "uint256"
        }
      ],
      "payable": false,
      "stateMutability": "view",
      "type": "function"
    },
    {
      "constant": true,
      "inputs": [],
      "name": "owner",
      "outputs": [
        {
          "name": "",
          "type": "address"
        }
      ],
      "payable": false,
      "stateMutability": "view",
      "type": "function"
    },
    {
      "constant": true,
      "inputs": [],
      "name": "overDepositTokensRecipient",
      "outputs": [
        {
          "name": "",
          "type": "address"
        }
      ],
      "payable": false,
      "stateMutability": "view",
      "type": "function"
    },
    {
      "constant": true,
      "inputs": [],
      "name": "SEVENTY_FIVE_PERCENTAGE_MULTIPLIER",
      "outputs": [
        {
          "name": "",
          "type": "uint256"
        }
      ],
      "payable": false,
      "stateMutability": "view",
      "type": "function"
    },
    {
      "constant": true,
      "inputs": [],
      "name": "seventyFivePercentageClaimer",
      "outputs": [
        {
          "name": "",
          "type": "address"
        }
      ],
      "payable": false,
      "stateMutability": "view",
      "type": "function"
    },
    {
      "constant": true,
      "inputs": [],
      "name": "twentyFivePercentageClaimStartDate",
      "outputs": [
        {
          "name": "",
          "type": "uint256"
        }
      ],
      "payable": false,
      "stateMutability": "view",
      "type": "function"
    },
    {
      "constant": true,
      "inputs": [],
      "name": "hookOperator",
      "outputs": [
        {
          "name": "",
          "type": "address"
        }
      ],
      "payable": false,
      "stateMutability": "view",
      "type": "function"
    },
    {
      "constant": true,
      "inputs": [],
      "name": "isTwentyFivePercentageClaimed",
      "outputs": [
        {
          "name": "",
          "type": "bool"
        }
      ],
      "payable": false,
      "stateMutability": "view",
      "type": "function"
    },
    {
      "constant": false,
      "inputs": [
        {
          "name": "newOwner",
          "type": "address"
        }
      ],
      "name": "transferOwnership",
      "outputs": [],
      "payable": false,
      "stateMutability": "nonpayable",
      "type": "function"
    },
    {
      "inputs": [
        {
          "name": "claimerAddress",
          "type": "address"
        },
        {
          "name": "startTime",
          "type": "uint256"
        }
      ],
      "payable": false,
      "stateMutability": "nonpayable",
      "type": "constructor"
    },
    {
      "payable": true,
      "stateMutability": "payable",
      "type": "fallback"
    },
    {
      "anonymous": false,
      "inputs": [
        {
          "indexed": false,
          "name": "claimerAddress",
          "type": "address"
        }
      ],
      "name": "LogSeventyFivePercentageClaimerSet",
      "type": "event"
    },
    {
      "anonymous": false,
      "inputs": [
        {
          "indexed": false,
          "name": "withdrawer",
          "type": "address"
        }
      ],
      "name": "LogTwentyFivePercentageWithdrawing",
      "type": "event"
    },
    {
      "anonymous": false,
      "inputs": [
        {
          "indexed": false,
          "name": "withdrawer",
          "type": "address"
        }
      ],
      "name": "LogSeventyFivePercentageWithdrawing",
      "type": "event"
    },
    {
      "anonymous": false,
      "inputs": [
        {
          "indexed": false,
          "name": "investorAddress",
          "type": "address"
        },
        {
          "indexed": false,
          "name": "overDepositedTokens",
          "type": "uint256"
        },
        {
          "indexed": false,
          "name": "ethersToRefund",
          "type": "uint256"
        },
        {
          "indexed": false,
          "name": "rate",
          "type": "uint256"
        },
        {
          "indexed": false,
          "name": "overDepositTokensRecipientAddress",
          "type": "address"
        }
      ],
      "name": "LogOverDepositsRefund",
      "type": "event"
    },
    {
      "anonymous": false,
      "inputs": [
        {
          "indexed": false,
          "name": "recipientAddress",
          "type": "address"
        }
      ],
      "name": "LogOverDepositRecipientSet",
      "type": "event"
    },
    {
      "anonymous": false,
      "inputs": [
        {
          "indexed": true,
          "name": "previousOwner",
          "type": "address"
        },
        {
          "indexed": true,
          "name": "newOwner",
          "type": "address"
        }
      ],
      "name": "OwnershipTransferred",
      "type": "event"
    },
    {
      "constant": false,
      "inputs": [
        {
          "name": "tokenInstanceAddress",
          "type": "address"
        }
      ],
      "name": "setTokenInstance",
      "outputs": [],
      "payable": false,
      "stateMutability": "nonpayable",
      "type": "function"
    },
    {
      "constant": false,
      "inputs": [
        {
          "name": "hookOperatorAddress",
          "type": "address"
        }
      ],
      "name": "setHookOperator",
      "outputs": [],
      "payable": false,
      "stateMutability": "nonpayable",
      "type": "function"
    },
    {
      "constant": false,
      "inputs": [
        {
          "name": "newClaimer",
          "type": "address"
        }
      ],
      "name": "setSeventyFivePercentageClaimer",
      "outputs": [],
      "payable": false,
      "stateMutability": "nonpayable",
      "type": "function"
    },
    {
      "constant": false,
      "inputs": [],
      "name": "withdrawTwentyFivePercentage",
      "outputs": [],
      "payable": false,
      "stateMutability": "nonpayable",
      "type": "function"
    },
    {
      "constant": false,
      "inputs": [],
      "name": "withdrawSeventyFivePercentage",
      "outputs": [],
      "payable": false,
      "stateMutability": "nonpayable",
      "type": "function"
    },
    {
      "constant": false,
      "inputs": [
        {
          "name": "newRecipient",
          "type": "address"
        }
      ],
      "name": "setOverDepositTokensRecipient",
      "outputs": [],
      "payable": false,
      "stateMutability": "nonpayable",
      "type": "function"
    },
    {
      "constant": false,
      "inputs": [
        {
          "name": "investor",
          "type": "address"
        },
        {
          "name": "rate",
          "type": "uint256"
        }
      ],
      "name": "refundOverDeposits",
      "outputs": [],
      "payable": false,
      "stateMutability": "nonpayable",
      "type": "function"
    }
  ],
  "bytecode": "0x608060405234801561001057600080fd5b5060405160408061107483398101604052805160209091015160008054600160a060020a0319163317905581600160a060020a038116151561005157600080fd5b4282101561005e57600080fd5b60048054600160a060020a038516600160a060020a031991821681179092556006805490911690911790556003805460a060020a60ff021916905560058290556100b8826249d400640100000000610f0c6100c482021704565b600755506100da915050565b6000828201838110156100d357fe5b9392505050565b610f8b806100e96000396000f3006080604052600436106101115763ffffffff7c010000000000000000000000000000000000000000000000000000000060003504166302785574811461011357806315c79396146101285780631be6ee1b146101495780632644dae5146101705780634b4ccca5146101855780635eb47ef6146101a9578063658030b3146101da57806369def554146101ef5780637d6e1e0b146102105780638da5cb5b146102255780639204764f1461023a578063b2214c611461025b578063b43f446714610270578063be1326e214610285578063c8386ec6146102a6578063cdd3067c146102bb578063e3b460c9146102d0578063ed77c073146102e5578063ef5f9ad4146102fa578063f2fde38b14610323575b005b34801561011f57600080fd5b50610111610344565b34801561013457600080fd5b50610111600160a060020a0360043516610471565b34801561015557600080fd5b5061015e6104ce565b60408051918252519081900360200190f35b34801561017c57600080fd5b5061015e6104d4565b34801561019157600080fd5b50610111600160a060020a03600435166024356104db565b3480156101b557600080fd5b506101be610b1b565b60408051600160a060020a039092168252519081900360200190f35b3480156101e657600080fd5b506101be610b2a565b3480156101fb57600080fd5b50610111600160a060020a0360043516610b39565b34801561021c57600080fd5b5061015e610bc8565b34801561023157600080fd5b506101be610bcd565b34801561024657600080fd5b50610111600160a060020a0360043516610bdc565b34801561026757600080fd5b506101be610c39565b34801561027c57600080fd5b5061015e610c48565b34801561029157600080fd5b50610111600160a060020a0360043516610c4d565b3480156102b257600080fd5b506101be610cdc565b3480156102c757600080fd5b5061015e610ceb565b3480156102dc57600080fd5b506101be610cf1565b3480156102f157600080fd5b50610111610d00565b34801561030657600080fd5b5061030f610e3b565b604080519115158252519081900360200190f35b34801561032f57600080fd5b50610111600160a060020a0360043516610e5c565b600454600090600160a060020a03163381148061036b5750600054600160a060020a031633145b151561037657600080fd5b60055442101561038557600080fd5b60035474010000000000000000000000000000000000000000900460ff16156103ad57600080fd5b600380547fffffffffffffffffffffff00ffffffffffffffffffffffffffffffffffffffff16740100000000000000000000000000000000000000001790556103fe3031600463ffffffff610ef016565b600454604051919350600160a060020a03169083156108fc029084906000818181858888f19350505050158015610439573d6000803e3d6000fd5b506040805133815290517faf88b426721411552b4173609b70a2500ad81d816e84fea63f83f5542b926fe59181900360200190a15050565b600054600160a060020a0316331461048857600080fd5b80600160a060020a038116151561049e57600080fd5b506002805473ffffffffffffffffffffffffffffffffffffffff1916600160a060020a0392909216919091179055565b60075481565b6249d40081565b600080548190819081908190600160a060020a031633146104fb57600080fd5b86600160a060020a038116151561051157600080fd5b600260009054906101000a9004600160a060020a0316600160a060020a0316637de480c66040518163ffffffff167c0100000000000000000000000000000000000000000000000000000000028152600401602060405180830381600087803b15801561057d57600080fd5b505af1158015610591573d6000803e3d6000fd5b505050506040513d60208110156105a757600080fd5b5051604080517f2c4e722e0000000000000000000000000000000000000000000000000000000081529051600160a060020a0390921691632c4e722e916004808201926020929091908290030181600087803b15801561060657600080fd5b505af115801561061a573d6000803e3d6000fd5b505050506040513d602081101561063057600080fd5b5051600254604080517f694719d800000000000000000000000000000000000000000000000000000000815290519298506106e0926106d392600160a060020a03169163694719d89160048083019260209291908290030181600087803b15801561069a57600080fd5b505af11580156106ae573d6000803e3d6000fd5b505050506040513d60208110156106c457600080fd5b5051889063ffffffff610ef016565b879063ffffffff610f0c16565b8711156106ec57600080fd5b600254604080517f70a08231000000000000000000000000000000000000000000000000000000008152600160a060020a038b81166004830152915191909216916370a082319160248083019260209291908290030181600087803b15801561075457600080fd5b505af1158015610768573d6000803e3d6000fd5b505050506040513d602081101561077e57600080fd5b5051600354604080517f8b09590400000000000000000000000000000000000000000000000000000000815290519297506108be926064926108b292600160a060020a0390911691638b095904916004808201926020929091908290030181600087803b1580156107ee57600080fd5b505af1158015610802573d6000803e3d6000fd5b505050506040513d602081101561081857600080fd5b5051600254604080517f18160ddd0000000000000000000000000000000000000000000000000000000081529051600160a060020a03909216916318160ddd916004808201926020929091908290030181600087803b15801561087a57600080fd5b505af115801561088e573d6000803e3d6000fd5b505050506040513d60208110156108a457600080fd5b50519063ffffffff610f2216565b9063ffffffff610ef016565b93508385116108cc57600080fd5b6108dc858563ffffffff610f4d16565b9250600260009054906101000a9004600160a060020a0316600160a060020a0316637de480c66040518163ffffffff167c0100000000000000000000000000000000000000000000000000000000028152600401602060405180830381600087803b15801561094a57600080fd5b505af115801561095e573d6000803e3d6000fd5b505050506040513d602081101561097457600080fd5b5051604080517fb46452a100000000000000000000000000000000000000000000000000000000815260048101869052602481018a90529051600160a060020a039092169163b46452a1916044808201926020929091908290030181600087803b1580156109e157600080fd5b505af11580156109f5573d6000803e3d6000fd5b505050506040513d6020811015610a0b57600080fd5b5051600254600154604080517f0201b5d5000000000000000000000000000000000000000000000000000000008152600160a060020a038d811660048301529283166024820152604481018c90529051939550911691630201b5d5918591606480830192602092919082900301818588803b158015610a8957600080fd5b505af1158015610a9d573d6000803e3d6000fd5b50505050506040513d6020811015610ab457600080fd5b505060015460408051600160a060020a03808c16825260208201879052818301869052606082018b90529092166080830152517f60cb53270fe2afd04bbd1d9ae38e4eb67e4367cef9662337fcdc1e4f0390d5f49181900360a00190a15050505050505050565b600454600160a060020a031681565b600254600160a060020a031681565b600054600160a060020a03163314610b5057600080fd5b80600160a060020a0381161515610b6657600080fd5b60068054600160a060020a03841673ffffffffffffffffffffffffffffffffffffffff19909116811790915560408051918252517f9a7668125d172170debf06ea50c726c61c45e83898451b6b3463146c447ceb0a9181900360200190a15050565b600481565b600054600160a060020a031681565b600054600160a060020a03163314610bf357600080fd5b80600160a060020a0381161515610c0957600080fd5b506003805473ffffffffffffffffffffffffffffffffffffffff1916600160a060020a0392909216919091179055565b600154600160a060020a031681565b600381565b600054600160a060020a03163314610c6457600080fd5b80600160a060020a0381161515610c7a57600080fd5b60018054600160a060020a03841673ffffffffffffffffffffffffffffffffffffffff19909116811790915560408051918252517f1ec032f9a185090eccd4d97708216f803f819e184eefddbb4afd065a6d6e1fbf9181900360200190a15050565b600654600160a060020a031681565b60055481565b600354600160a060020a031681565b600654600090600160a060020a031633811480610d275750600054600160a060020a031633145b1515610d3257600080fd5b600754421015610d4157600080fd5b60035474010000000000000000000000000000000000000000900460ff1615610da457600654604051600160a060020a0390911690303180156108fc02916000818181858888f19350505050158015610d9e573d6000803e3d6000fd5b50610e04565b610dc76003610dbb3031600463ffffffff610ef016565b9063ffffffff610f2216565b600654604051919350600160a060020a03169083156108fc029084906000818181858888f19350505050158015610e02573d6000803e3d6000fd5b505b6040805133815290517fa3a23cae30d91d25d01e2a947a7ff79bbe04fd1ed11cfc012438664911e969029181900360200190a15050565b60035474010000000000000000000000000000000000000000900460ff1681565b600054600160a060020a03163314610e7357600080fd5b600160a060020a0381161515610e8857600080fd5b60008054604051600160a060020a03808516939216917f8be0079c531659141344cd1fd0a4f28419497f9722a3daafe3b4186f6b6457e091a36000805473ffffffffffffffffffffffffffffffffffffffff1916600160a060020a0392909216919091179055565b6000808284811515610efe57fe5b0490508091505b5092915050565b600082820183811015610f1b57fe5b9392505050565b600080831515610f355760009150610f05565b50828202828482811515610f4557fe5b0414610f1b57fe5b600082821115610f5957fe5b509003905600a165627a7a72305820ce4b46bf2980b4f77a7deeb4073978eecef1b7e923e1deca31796725021d94e10029",
  "source": "pragma solidity ^0.4.21;\n\nimport \"./../../node_modules/zeppelin-solidity/contracts/math/SafeMath.sol\";\nimport \"./../../node_modules/zeppelin-solidity/contracts/ownership/Ownable.sol\";\nimport \"./../../contracts/InitialCoinOffering/ICOTokenExtended.sol\";\nimport \"./../../contracts/HookOperator/IHookOperator.sol\";\n\ncontract Vesting is Ownable {\n\n    using SafeMath for uint256;\n\n    address public overDepositTokensRecipient;\n\n    ICOTokenExtended public tokenInstance;\n    IHookOperator public hookOperator;\n\n    bool public isTwentyFivePercentageClaimed;\n    uint256 public constant TWENTY_FIVE_PERCENTAGE_DELIMITER = 4; // total balance / 4 => 25%\n    address public twentyFivePercentageClaimer; // Can claim 25% of the contract's ethers\n    uint256 public twentyFivePercentageClaimStartDate;\n    \n    uint256 public constant SEVENTY_FIVE_PERCENTAGE_MULTIPLIER = 3; // (total balance / 4) * 3 => 25% * 3 = 75%\n    address public seventyFivePercentageClaimer; // Can claim 75% of the contract's ethers\n    uint256 public seventyFivePercentageClaimStartDate;\n\n    uint256 public constant SEVENTY_FIVE_PERCENTAGE_CLAIM_LOCK_DURATION = 8 weeks; // Two months after which we can claim 75%\n\n    event LogSeventyFivePercentageClaimerSet(address claimerAddress);\n    event LogTwentyFivePercentageWithdrawing(address withdrawer);\n    event LogSeventyFivePercentageWithdrawing(address withdrawer);\n    event LogOverDepositsRefund(\n        address investorAddress, \n        uint overDepositedTokens, \n        uint ethersToRefund, \n        uint rate, \n        address overDepositTokensRecipientAddress\n    );\n    event LogOverDepositRecipientSet(address recipientAddress);\n\n    modifier nonZeroAddress(address addressForValidation) {\n        require(addressForValidation != address(0));\n\n        _;\n    }\n\n    modifier onlyRightfulWithdrawer(address claimer) {\n        require(msg.sender == claimer || msg.sender == owner);\n\n        _;\n    }\n\n    constructor(address claimerAddress, uint256 startTime) public nonZeroAddress(claimerAddress) {\n        require(startTime >= now);\n\n        twentyFivePercentageClaimer = claimerAddress;\n        seventyFivePercentageClaimer = claimerAddress;\n        isTwentyFivePercentageClaimed = false;\n\n        twentyFivePercentageClaimStartDate = startTime;\n\n        // We can claim 75% two months after the beginning\n        seventyFivePercentageClaimStartDate = startTime.add(SEVENTY_FIVE_PERCENTAGE_CLAIM_LOCK_DURATION); \n    }\n\n    function setTokenInstance(address tokenInstanceAddress) external onlyOwner nonZeroAddress(tokenInstanceAddress) {\n        tokenInstance = ICOTokenExtended(tokenInstanceAddress);\n    }\n\n    function setHookOperator(address hookOperatorAddress) external onlyOwner nonZeroAddress(hookOperatorAddress) {\n        hookOperator = IHookOperator(hookOperatorAddress);\n    }\n\n    function setSeventyFivePercentageClaimer(address newClaimer) external onlyOwner nonZeroAddress(newClaimer) {\n        seventyFivePercentageClaimer = newClaimer;\n\n        emit LogSeventyFivePercentageClaimerSet(newClaimer);\n    }\n\n    function withdrawTwentyFivePercentage() external onlyRightfulWithdrawer(twentyFivePercentageClaimer) {\n\n        require(twentyFivePercentageClaimStartDate <= now);\n        require(!isTwentyFivePercentageClaimed);\n\n        isTwentyFivePercentageClaimed = true;\n\n        uint weiToSend = address(this).balance.div(TWENTY_FIVE_PERCENTAGE_DELIMITER); // 25% of the ethers\n\n        twentyFivePercentageClaimer.transfer(weiToSend);\n\n        emit LogTwentyFivePercentageWithdrawing(msg.sender);\n    } \n\n    /*\n        This function is used for withdrawing 75% of the contract ethers.\n        It can be called 2 months after the crowdsale end date\n    */\n    function withdrawSeventyFivePercentage() external onlyRightfulWithdrawer(seventyFivePercentageClaimer) {\n        require(seventyFivePercentageClaimStartDate <= now);\n\n        if(isTwentyFivePercentageClaimed){\n            seventyFivePercentageClaimer.transfer(address(this).balance);\n        }else{\n            uint weiToSend = address(this).balance.div(TWENTY_FIVE_PERCENTAGE_DELIMITER).mul(SEVENTY_FIVE_PERCENTAGE_MULTIPLIER); // 75% of the ethers\n            seventyFivePercentageClaimer.transfer(weiToSend);\n        }\n\n        emit LogSeventyFivePercentageWithdrawing(msg.sender);\n    }\n\n    function setOverDepositTokensRecipient(address newRecipient) external onlyOwner nonZeroAddress(newRecipient) {\n        overDepositTokensRecipient = newRecipient;\n\n        emit LogOverDepositRecipientSet(newRecipient);\n    } \n\n    function refundOverDeposits(address investor, uint rate) external onlyOwner nonZeroAddress(investor) {\n        uint256 oracleRate = tokenInstance.aiurExchangeOracle().rate();\n\n        require(rate <= oracleRate.add(oracleRate.div(tokenInstance.MIN_REFUND_RATE_DELIMITER()))); // Passed rate has to be bigger maximum 50% of the oracle rate\n\n        uint256 investorBalance = tokenInstance.balanceOf(investor);\n        \n        // Calculate percentage limit in tokens\n        uint256 maxTokensBalance = tokenInstance.totalSupply().mul(hookOperator.getBalancePercentageLimit()).div(100);\n\n        require(investorBalance > maxTokensBalance);\n\n        uint256 overDepositedTokens = investorBalance.sub(maxTokensBalance);\n        uint256 weiToRefund = tokenInstance.aiurExchangeOracle().convertTokensAmountInWeiAtRate(overDepositedTokens, rate);\n\n        tokenInstance.transferOverBalanceFunds.value(weiToRefund)(investor, overDepositTokensRecipient, rate);\n\n        emit LogOverDepositsRefund(investor, overDepositedTokens, weiToRefund, rate, overDepositTokensRecipient);\n    }\n\n    function() external payable { }\n}",
  "sourcePath": "/Users/lyubo/Desktop/Projects/IrisaAI/POC-1/Production-Token/institution-ico-token/contracts/Vesting/Vesting.sol",
  "compiler": {
    "name": "solc",
    "version": "0.4.24+commit.e67f0147.Emscripten.clang"
  },
  "schemaVersion": "2.0.0",
  "updatedAt": "2018-06-19T16:06:07.112Z"
}