{
  "contractName": "LimeFactory",
  "abi": [
    {
      "constant": true,
      "inputs": [
        {
          "name": "",
          "type": "uint256"
        }
      ],
      "name": "limes",
      "outputs": [
        {
          "name": "name",
          "type": "string"
        },
        {
          "name": "carbohydrates",
          "type": "uint8"
        },
        {
          "name": "fat",
          "type": "uint8"
        },
        {
          "name": "protein",
          "type": "uint8"
        }
      ],
      "payable": false,
      "stateMutability": "view",
      "type": "function"
    },
    {
      "anonymous": false,
      "inputs": [
        {
          "indexed": false,
          "name": "name",
          "type": "string"
        }
      ],
      "name": "FreshLime",
      "type": "event"
    },
    {
      "constant": false,
      "inputs": [
        {
          "name": "_name",
          "type": "string"
        },
        {
          "name": "_carbohydrates",
          "type": "uint8"
        },
        {
          "name": "_fat",
          "type": "uint8"
        },
        {
          "name": "_protein",
          "type": "uint8"
        }
      ],
      "name": "createLime",
      "outputs": [],
      "payable": false,
      "stateMutability": "nonpayable",
      "type": "function"
    }
  ],
  "bytecode": "0x608060405234801561001057600080fd5b5061050d806100206000396000f30060806040526004361061004c576000357c0100000000000000000000000000000000000000000000000000000000900463ffffffff16806321310ecd14610051578063e0b6fcfc1461011e575b600080fd5b34801561005d57600080fd5b5061007c600480360381019080803590602001909291905050506101ae565b60405180806020018560ff1660ff1681526020018460ff1660ff1681526020018360ff1660ff168152602001828103825286818151815260200191508051906020019080838360005b838110156100e05780820151818401526020810190506100c5565b50505050905090810190601f16801561010d5780820380516001836020036101000a031916815260200191505b509550505050505060405180910390f35b34801561012a57600080fd5b506101ac600480360381019080803590602001908201803590602001908080601f0160208091040260200160405190810160405280939291908181526020018383808284378201915050505050509192919290803560ff169060200190929190803560ff169060200190929190803560ff1690602001909291905050506102ac565b005b6000818154811015156101bd57fe5b9060005260206000209060020201600091509050806000018054600181600116156101000203166002900480601f0160208091040260200160405190810160405280929190818152602001828054600181600116156101000203166002900480156102695780601f1061023e57610100808354040283529160200191610269565b820191906000526020600020905b81548152906001019060200180831161024c57829003601f168201915b5050505050908060010160009054906101000a900460ff16908060010160019054906101000a900460ff16908060010160029054906101000a900460ff16905084565b60008360ff16141515156102bf57600080fd5b60006080604051908101604052808681526020018560ff1681526020018460ff1681526020018360ff1681525090806001815401808255809150509060018203906000526020600020906002020160009091929091909150600082015181600001908051906020019061033392919061043c565b5060208201518160010160006101000a81548160ff021916908360ff16021790555060408201518160010160016101000a81548160ff021916908360ff16021790555060608201518160010160026101000a81548160ff021916908360ff1602179055505050507fe65ca226f7ab35846085554e9c72f162260bd2e4a6d6a752f0aacad4e0f18fe5846040518080602001828103825283818151815260200191508051906020019080838360005b838110156103fc5780820151818401526020810190506103e1565b50505050905090810190601f1680156104295780820380516001836020036101000a031916815260200191505b509250505060405180910390a150505050565b828054600181600116156101000203166002900490600052602060002090601f016020900481019282601f1061047d57805160ff19168380011785556104ab565b828001600101855582156104ab579182015b828111156104aa57825182559160200191906001019061048f565b5b5090506104b891906104bc565b5090565b6104de91905b808211156104da5760008160009055506001016104c2565b5090565b905600a165627a7a723058201d38aebb784ff8e73ab31afb0686aded45cca5899a401b4a6a650681c1cc59f40029",
  "source": "pragma solidity ^0.4.24;\n\ncontract LimeFactory {\n\n    event FreshLime(string name);\n\n    struct Lime {\n        string name;\n        uint8 carbohydrates;\n        uint8 fat;\n        uint8 protein;\n    }\n\n    Lime[] public limes;\n\n    function createLime(string _name, uint8 _carbohydrates, uint8 _fat, uint8 _protein) public {\n        require(_carbohydrates != 0);\n        limes.push(Lime(_name, _carbohydrates, _fat, _protein));\n        emit FreshLime(_name);\n    }\n}",
  "sourcePath": "/Users/desimiramitkova/Projects/marketplace/contracts/Marketplace/LimeFactory.sol",
  "compiler": {
    "name": "solc",
    "version": "0.4.25+commit.59dbf8f1.Emscripten.clang"
  },
  "schemaVersion": "0.9.8",
  "updatedAt": "2018-11-12T08:08:05.227Z"
}