{
  "contractName": "ProductionFactoryProxy",
  "abi": [
    {
      "constant": true,
      "inputs": [],
      "name": "contractImplementation",
      "outputs": [
        {
          "name": "",
          "type": "address"
        }
      ],
      "payable": false,
      "stateMutability": "view",
      "type": "function"
    },
    {
      "inputs": [
        {
          "name": "_contractImpl",
          "type": "address"
        }
      ],
      "payable": false,
      "stateMutability": "nonpayable",
      "type": "constructor"
    },
    {
      "payable": true,
      "stateMutability": "payable",
      "type": "fallback"
    }
  ],
  "bytecode": "0x608060405234801561001057600080fd5b506040516020806101a9833981016040525160008054600160a060020a03909216600160a060020a0319909216919091179055610157806100526000396000f3006080604052600436106100405763ffffffff7c01000000000000000000000000000000000000000000000000000000006000350416639e72370b8114610096575b6000805460408051602036601f81018290048202830182019093528282526100949473ffffffffffffffffffffffffffffffffffffffff9094169391929081908401838280828437506100d4945050505050565b005b3480156100a257600080fd5b506100ab61010f565b6040805173ffffffffffffffffffffffffffffffffffffffff9092168252519081900360200190f35b813b80156100e1576100e6565b600080fd5b50600080825160208401856127105a03f43d604051816000823e82801561010b578282f35b8282fd5b60005473ffffffffffffffffffffffffffffffffffffffff16815600a165627a7a7230582014046a373362678ae7bcf8d7e5e45f82f88188882daf50a34f80363add52f9780029",
  "source": "pragma solidity ^0.4.23;\n\nimport \"../Upgradeability/UpgradeableProxy.sol\";\n\ncontract ProductionFactoryProxy is UpgradeableProxy {\n\n\tconstructor(address _contractImpl) UpgradeableProxy(_contractImpl) public {}\n\n}",
  "sourcePath": "/Users/georgispasov/Development/ARXUM/Demoapp_SC/contracts/ProductionFactory/ProductionFactoryProxy.sol",
  "compiler": {
    "name": "solc",
    "version": "0.4.24+commit.e67f0147.Emscripten.clang"
  },
  "schemaVersion": "2.0.0",
  "updatedAt": "2018-06-14T17:04:59.969Z"
}